:02000004703852
:100000000B8DDEBE3F636DBD309644BF3F636DBE5A
:10001000000000003F636D3C075E94BE6F0A323EF5
:10002000559F2A3F3B3423BE6F0AB23DEDF28CBE92
:1000300073397CBEF121D7BEEDF28C3E075E14BE53
:10004000075E14BE3B34233E73397CBE73397CBEDD
:10005000559FAA3E075E943E6F0A32BD3F63ED3D59
:100060003F636DBCD7B6CFBD075E14BE59CEF4BE9C
:100070003F63ED3CD38705BE6F0A323D7339FC3ECA
:1000800025F8E5BE3F63ED3C25F8E5BE3F636DBE58
:100090003F63EDBD3F636D3D6F0A32BE6F0AB2BD77
:1000A00021C99B3E46D201BF6F0A323E075E943D96
:1000B0003B34A3BEEDF28CBE8975B9BE73397C3E6C
:1000C0003F63ED3C075E14BE3F63EDBDD7B6CFBDC9
:1000D000D7B6CF3D6F0AB2BD075E94BD8975B9BE74
:1000E0003B3423BE3F63ED3D6F0AB23E0B8D5E3E57
:1000F000D387053E075E94BD075E143EEDF28C3E4D
:100100003F636D3CD7B6CF3D6F0A32BD8975B93EAE
:100110003B3423BEEDF28C3E3B34A33E6F0A32BD2E
:100120006F0AB23E3F63EDBC3F636D3E3B3423BE7E
:100130007339FCBE6F0A323D73397CBE000000008B
:100140003F636D3CD38705BE075E943E3B34233F3F
:10015000D38705BED7B6CFBD0B8D5EBE6F0AB2BDCD
:10016000EDF28CBE7339FCBE3F63EDBD3F636DBEE7
:10017000EDF28C3ED38705BE3F636DBD0B8D5E3EB9
:100180006F0A323E3F63ED3DD7B6CF3D25F8E53EE1
:100190003F63EDBC3B34233ED7B6CF3E075E943E73
:1001A000075E143F6F0AB23E6F0A32BE6F0A32BE5C
:1001B00000000000D7B64FBE3F636D3C0B8D5EBEA6
:1001C0003B3423BE3F636D3DF121D7BEEDF28C3E43
:1001D000075E143E3F636D3D3F63ED3C3F63ED3C86
:1001E000D7B64FBE559F2ABF3F636DBF6F0A323DE2
:1001F0003F63EDBC075E143E559FAA3ED387053F83
:10020000075E14BEA3E0403EA3E040BE73397C3ECF
:100210003F63ED3CA3E0403E3F636D3D3F63EDBD7A
:10022000075E943DF121D7BEA3E040BE0000000070
:100230003F63EDBCD387053E6F0AB23D3F636DBDA2
:100240000B8D5EBE0B8D5E3EBD4BC8BE6F0AB23DD0
:10025000075E143E6F0AB2BD075E943E3F63ED3DFC
:10026000AE7E1FBF075E14BE46D201BF6F0A32BE0C
:10027000D38705BE25F8E53E7AA8103F3F636DBDE4
:10028000075E943D0B8D5E3EA3E040BE21C99BBE40
:10029000000000006F0A323EA3E0C0BE075E14BE3D
:1002A000A3E040BE075E94BD000000000B8D5EBE63
:1002B0006F0AB2BE3F636DBDD7B64FBEF121D7BE48
:1002C000D38705BFD7B6CF3DD7B64FBEA3E0C0BEDC
:1002D00021C99BBE21C99B3E3F636DBD3B34233E7C
:1002E000BD4BC8BE3F636D3E075E94BE6F0A323D94
:1002F000D7B6CFBD7AA810BFEDF28CBE3F63EDBC80
:100300003F63ED3D3F63ED3DD38705BE075E94BD82
:10031000D7B64FBE3F63ED3DD38705BE3B34A33E0A
:100320003B34A33E646C53BF00000000075E943D65
:10033000075E94BD73397CBED7B6CFBD6F0A323D20
:10034000D7B64FBE3B34A3BE075E94BDA3E0C0BE8C
:100350000B8D5EBE6F0AB23D6F0A32BD3F63EDBDCD
:1003600046D201BF075E143E3F63ED3C0000000033
:100370003F636D3CD38705BF3F63ED3DD7B64FBEAE
:10038000D7B6CF3D0B8D5E3E21C99BBE25F8E53E1D
:10039000D38705BE3F636DBD3F636D3E3F63EDBCDC
:1003A0003F63EDBC603D09BFD7B64FBE3B3423BEB3
:1003B000075E94BED387053E6F0A32BD0B8D5E3E4D
:1003C000A3E0C0BEA3E0C0BED387053E3F636D3C43
:1003D000D7B6CFBD6F0AB2BE075E94BD075E94BDAF
:1003E0006F0A323D21C91BBF3B3423BE3B3423BEC1
:1003F000D7B6CF3D8975B9BE000000003B34A33E9F
:10040000075E14BE559FAA3E075E94BDEDF28C3E7A
:100410006F0AB2BD3F636D3C075E943D3B3423BE23
:10042000559F2A3F3F636D3D559FAABEA3E0C0BEC6
:10043000075E94BE3F636D3D6F0A323D3F63EDBD85
:10044000E2542EBFD7B64FBE3F63ED3DEDF28CBEFA
:10045000F121D73ED38785BE6F0A32BD3F63EDBC25
:10046000559FAABEF12157BF3B34A33E8975B93EC3
:10047000EDF28CBE603D09BF075E143E8975B93E42
:100480003F63EDBD3F636D3D075E943D6F0A323DB6
:10049000075E143E3F636D3D6F0A32BE6F0AB23D88
:1004A000D7B6CFBD3B34A3BE6F0AB2BD6F0AB23D13
:1004B000603D09BF075E94BD0B8D5E3E6F0AB2BD05
:1004C000075E943D3F636D3C3F636DBD6F0AB23D77
:1004D0003F63ED3E3F636DBC6F0AB23D73397C3EB6
:1004E000D7B64FBE075E94BED7B6CFBD3F636DBCD7
:1004F000D7B6CF3DD38785BE21C99B3E8975B9BE8E
:100500003F636D3E3F636D3E3B34233FD7B6CFBD67
:100510003F636DBC6F0A32BED38785BE075E94BD54
:10052000559FAABE6F0A32BDD387853E3B3423BE9A
:100530003B3423BE6F0AB23D00000000F121D7BE5C
:10054000EDF28CBED7B6CFBD6F0A32BDD38705BEE4
:100550003B3423BEEDF28CBE6F0A32BDD38705BE9D
:1005600073397CBED7B6CF3D3F63EDBD00000000C0
:100570006F0A32BDD38705BE0B8D5EBED38785BEA5
:100580003F636DBED7B6CF3D21C99BBE3F636D3C77
:100590006F0AB2BD3F636DBE6F0A323E3F636D3E70
:1005A0003F63ED3D4A014CBF075E14BED7B6CF3D59
:1005B000559FAABE000000006F0AB2BE3F636D3CAB
:1005C0003F63EDBC6F0A32BDEDF28C3E3F63EDBE82
:1005D0006F0AB2BD3F636DBD3F636D3D6F0AB23EB2
:1005E000D38785BEF121D7BE075E143ED7B6CF3D77
:1005F0006F0AB23ED7B6CFBD6F0A32BF559F2ABF32
:10060000EDF20CBF075E94BD603D09BF6F0AB23EBC
:100610006F0A32BD6F0AB2BD0B8D5E3E6F0A323D6E
:10062000D387053FD38705BE559F2ABF25F8E5BE72
:10063000603D09BF3F636DBDD7B6CFBDD387853E53
:10064000075E94BE0B8D5EBE3F636D3EF121D7BE4B
:100650003F63ED3C3F636DBE075E143E3F63EDBC00
:10066000075E14BED7B64FBE897539BF73397CBEDD
:10067000075E943DD7B64F3ED387053ED7B6CF3DF4
:1006800025F8E5BE6F0A32BE3F63ED3E3F636DBCA9
:10069000000000006F0AB23D075E94BDAE7E1FBF32
:1006A0000B8DDE3E3F63ED3D3B34A3BE3F63EDBDAE
:1006B000F121D7BE3F63ED3D6F0A323EA3E0403EDD
:1006C000D7B6CF3D8975B9BE3F636D3EBD4BC8BE41
:1006D0003F63ED3D7339FCBE075E143E3F636D3DE5
:1006E000F121D7BED7B64FBE075E943D075E143EDC
:1006F0000B8DDEBED7B64F3E075E94BD3F63ED3D2A
:10070000D7B6CFBD3F63EDBD3F63EDBD73397CBE52
:100710000B8D5E3E6F0AB2BD6F0AB2BEEDF28CBEAB
:1007200073397CBE559F2ABF3F63EDBC3F63EDBD6F
:10073000D38705BE73397C3E6F0A32BD3F636DBD02
:100740003F636DBD603D09BF3B3423BE3F636D3DDC
:10075000D7B6CF3DE2542EBF3F63EDBC6F0AB23D2A
:10076000075E14BE59CEF4BEEDF20C3F3F636D3D03
:100770006F0AB23D3F63ED3C0B8D5EBEEDF28CBE69
:10078000941318BF3F63ED3C7339FCBEA3E040BE39
:100790006F0AB2BD6F0AB23D3F636DBD3F636D3CF2
:1007A00073397CBED7B6CF3DA3E0403E075E943D93
:1007B000EDF28CBED38705BE8975B93ED7B64FBE64
:1007C0006F0AB2BDA3E040BE3B34233E3B34233E20
:1007D0000B8D5E3E075E14BE3F63EDBDD7B64F3E48
:1007E000000000003F63ED3E46D201BF0000000064
:1007F0003B34A33EEDF28C3ED7B6CFBD3F63EDBD9B
:10080000D38705BE3F636DBDA3E0403E3F63EDBCB3
:10081000075E94BD6F0AB2BDD7B64F3ED38785BE83
:100820006F0A32BD6F0A323D3B3423BED7B6CFBD0F
:10083000000000000B8DDE3E075E94BE3F636D3C02
:10084000D387853ED7B6CFBDD7B6CFBD6F0A32BEF0
:10085000075E143E3F63EDBD6F0A323D59CEF43E54
:10086000D7B6CF3DD7B64FBEEDF20CBFD38705BE8E
:100870003F636DBDD387053ED7B64FBED38705BF57
:10088000075E143E3F63EDBD3F636D3E3F636D3DCC
:10089000D7B6CF3DA3E040BE6F0A323D3B34A3BE86
:1008A0003F63EDBCD387053E3F636DBD6F0A32BD2C
:1008B000D7B6CF3DA3E0403EEDF28CBE3B34233EA5
:1008C0006F0AB2BD3F636D3D6F0A323E7AA810BF1A
:1008D0003B34233ED7B6CFBDD387053E3F636D3D46
:1008E000075E14BE73397CBE6F0A32BD075E94BECC
:1008F00025F8E5BE075E94BDF121D73E6F0AB2BE72
:100900006F0AB23D6F0A32BE3B34A33E21C99BBE83
:100910003F636D3C6F0A323D6F0AB2BE25F8E5BEFB
:100920000B8DDEBE73397CBE73397C3E075E14BE10
:100930003F636D3DD7B64FBE3F63ED3C075E943DD0
:100940006F0A323E6F0A323E3F63ED3DD7B64FBE6F
:100950003F636DBD3F636D3DD7B6CFBDD7B64F3E4C
:100960003F63ED3DD7B6CF3D075E943D3F636D3DA0
:100970003F636DBDEDF28C3E3B34233E3F63EDBCE7
:10098000075E943E6F0A32BED387053E6F0AB2BE41
:100990003F636DBC075E943D6F0AB2BE3F636D3C22
:1009A0006F0A32BDF12157BF3F636DBC3B3423BE9C
:1009B0003F636DBD3F636DBED7B64F3E3B34233EB4
:1009C000D7B6CFBD73397CBE3F636D3C075E143E26
:1009D000A3E040BE00000000D38705BE075E143EC2
:1009E0003B34A33EFCBF35BFD387053E6F0A323D83
:1009F0003F636D3C3F63ED3C3F636D3C3F63EDBD4A
:100A0000075E94BED38705BEEDF28C3E0B8D5EBEB5
:100A1000D7B64F3ED7B6CFBD3F63EDBDBD4BC8BEC9
:100A2000A3E040BF3B34233ED7B6CF3E0B8D5E3EA6
:100A3000D7B6CFBDD7B64F3E0B8D5E3E3F63ED3D83
:100A40003F63EDBC6F0AB2BDF121D73E6F0AB23DE4
:100A5000F121D73E6F0A323D3F636D3E075E94BD84
:100A60003F636DBD3F636DBEBD4BC8BE3F636D3C14
:100A70003F63ED3ED7B6CF3DA3E0403EA3E0C0BE0E
:100A8000D7B64F3ED38705BE8975B93E6F0AB23DD2
:100A9000D7B64F3E3F63EDBC8975B93E7339FCBE96
:100AA00025F8E5BE3F636D3DD7B64FBE0B8D5EBEEC
:100AB0003F636DBC7339FC3E3F63ED3CD7B6CF3D21
:100AC0003F636DBD3F63EDBDD7B6CF3D3F636DBDA9
:100AD0006F0A323E075E94BDD387053EEDF20C3FB0
:100AE0008975B9BEE2542EBF46D201BF3B34233EC6
:100AF0003F636D3C6F0AB23DD7B6CF3D21C91BBFE6
:100B00006F0A323D3F63ED3C3B3423BEEDF28C3E39
:100B10003F63ED3D73397CBEEDF28C3E3F636DBEAD
:100B2000BD4BC8BE3F63EDBC6F0A32BE6F0A323D9B
:100B3000D7B6CF3DF121D73E00000000D7B64F3EDB
:100B40003F636D3D6F0A323D075E94BD73397CBED5
:100B5000075E143E3F63EDBD6F0A323ED7B64F3E8F
:100B600025F8E5BE3F636DBEEDF28C3E3B3423BFFE
:100B700021C99BBE3F636DBC0B8D5E3E59CEF4BE5A
:100B80006F0AB23D6F0A323D559FAA3E3F636D3DED
:100B90003F63ED3C3F636D3C3F636D3C559FAABE98
:100BA000EDF20CBF0B8D5EBE6F0AB23DD7B6CFBD66
:100BB0003F63EDBD3F636DBDEDF28C3ED38705BE57
:100BC00073397CBEEDF28C3ED387053E3F63ED3D2D
:100BD0006F0A323D6F0A323D3F63EDBDD387053E5C
:100BE000559FAABE6F0A32BE3F636D3CD38785BE58
:100BF000075E143E075E94BDD7B64FBE075E14BFB6
:100C00000B8D5EBE3F636D3D00000000D7B64FBE4A
:100C10006F0A32BDA3E0403E3B3423BE603D09BFB6
:100C2000941318BFD38785BE8975B93E075E943D7E
:100C30003F636DBC6F0AB2BE3F636D3D6F0AB2BDCC
:100C4000075E143E3F636DBC075E943E3B34A33E9B
:100C5000075E94BD0B8D5E3ED7B6CFBDD387853E74
:100C60003B3423BE162B3DBF73397CBE3B3423BEC1
:100C7000075E94BD075E94BDD7B64FBEBD4BC8BEE0
:100C8000D631073E1118983ED63107BED631073D02
:100C90004CFE283E4CFE283ED63187BEC1CACABD96
:100CA00036976CBED631073DD631873D111898BEB8
:100CB0002E8B20BFC1CACABD4CFE283E717DFD3EB1
:100CC000C1CA4A3EC1CA4A3E2E8B203FD63187BE9A
:100CD000D631073DC1CACA3DFCB0DBBE36976CBEFB
:100CE0004CFEA8BED63107BED63107BFD631873DF0
:100CF000D631073D3697ECBED631073ED631873D1B
:100D0000D63107BE717DFDBEC1CA4ABE00000000DB
:100D1000D631073E4CFEA83E111898BEC1CA4A3EC5
:100D2000000000004CFEA83ED631873ED63107BEFB
:100D3000111818BFD63107BDD63107BEC1CACA3E89
:100D4000D631073D3697EC3ED63187BE4CFE28BEE5
:100D50004CFE283E36976C3E36976CBE4CFE283EC5
:100D60004CFEA8BEC1CACABE4CFE28BED63107BEC4
:100D7000C1CACA3DFCB0DBBEC1CACA3DC1CA4A3EF7
:100D8000D63107BF697131BF00000000D631873D01
:100D9000D631873ED631873D4CFE28BEC1CACABD7A
:100DA000FCB0DB3ED631873E36976C3ED63187BEEF
:100DB000192464BFD631073DFCB0DBBE1118183FC3
:100DC000D631873D4CFE283EA45742BFC1CA4ABE19
:100DD0004CFE283E4CFE283EC1CA4ABE86E4B9BE3F
:100DE000111898BE86E439BFC1CA4ABE36976CBE98
:100DF000D63107BDC1CACABED631073ED631073D7E
:100E00003697ECBE4CFEA8BED63107C04CFE283E3D
:100E1000D631873E4CFE28BED631073D4CFE28BE5B
:100E2000C1CA4A3EC1CA4A3EC1CA4A3ED63187BE3D
:100E3000C1CACABD000000004CFE28BEC1CACA3EDD
:100E4000D631873DC1CACABD86E439BF86E4B9BE82
:100E5000D631073ED631873DD63187BE717DFDBE86
:100E6000111898BEA45742BF86E4B9BE4CFE28BEF6
:100E7000D63187BDD63187BE36976C3ED63187BE18
:100E8000C1CACA3D36976CBED63107BE4CFE283E5D
:100E900036976C3EFCB0DBBED631073DC1CACABD39
:100EA000C1CACA3E4CFEA8BEC1CA4A3ED63187BEA0
:100EB000FCB0DB3ED631073D36976CBE000000002B
:100EC0004CFE283F00000000F3A48FBFC1CA4ABEF9
:100ED00086E4B93ED631073DD63187BD4CFE28BEEB
:100EE000C1CACA3D86E4B93E4CFEA8BE111818BF5F
:100EF00036976CBE86E4B9BE4CFE283ED63187BE1E
:100F000086E4B93E4CFEA83E36976CBE1118983E5A
:100F10000000000000000000C1CA4A3ED631073D73
:100F2000D63107BD86E4B9BED63107BDFCB0DBBE05
:100F30003697ECBED631873D86E4B9BED631073E42
:100F40000000000000000000C1CACA3DD63107BE43
:100F5000717DFD3ED631073D697131BF4CFEA8BEA3
:100F600036976C3ED63107BE36976CBFD631873D7B
:100F700086E4B9BE36976C3E1118983E1118983E1B
:100F80004CFEA83EC1CACA3D4CFEA8BEC1CA4A3EDC
:100F9000D63187BDD63187BED631073DD631073E23
:100FA0003697ECBE36976CBED631873DD631073DBD
:100FB000C1CACABDC1CACABDD63187BDD631873DF7
:100FC000FCB0DB3E86E439BF4CFE28BED63107BDFF
:100FD0002E8B203FC1CA4A3EF3A40FBF2E8B20BFE9
:100FE0001118983EFCB0DBBED63187BD0000000072
:100FF000D631073ED631073DC1CACA3DD63107BEFC
:101000004CFE283E000000004CFEA8BED631073D35
:10101000C1CACABDD63107BF00000000D631873D26
:10102000D63107BD36976CBEC1CACA3DD63187BE20
:10103000C1CACABDC1CACA3DD63187BEC1CACA3E2D
:10104000D631073EA45742BF4CFEA8BED63187BE5C
:10105000C1CA4A3ED63107BE3697ECBED63107BE6E
:10106000C1CA4A3ED63107BED631073E0000000055
:10107000C1CACABDD63107BEC1CA4ABE4CFEA8BE4F
:10108000D631073DD63107BD2E8B20BFD63187BD67
:10109000000000004CFE28BEC1CACABDD63107BD43
:1010A000FCB0DB3EC1CACABD000000004CFEA8BFB8
:1010B000D631873E36976C3ED63187BD86E4B93E41
:1010C000C1CA4A3ED63187BEFCB05BBFF3A40FBF96
:1010D000D631073D36976CBE86E4B9BED631073EA1
:1010E000C1CACABDD63107BED63107BDD63107BE8B
:1010F000111898BEC1CACA3DD63187BDD63107BEC8
:101100004CFE283EC1CACA3DF3A40FBF0000000038
:10111000D631073DC1CA4ABED63107BED63187BDDA
:101120004CFE28BED63187BEC1CACA3D2E8B20BF19
:1011300036976C3E1118983E36976CBE36976CBE4B
:10114000D631073E4CFE283EC5D0F0BFD63107BE93
:101150004CFE283ED63107BF4CFE28BED631073D97
:10116000D63107BDD631873EC1CACABD111898BE57
:10117000D63107BFD63107BD36976CBED63107BE14
:1011800086E4B93ED631073D4CFE28BE0000000083
:10119000D63187BD4CFE28BF36976C3E192464BFFC
:1011A000C1CACA3D111898BEC1CACABDD63187BED0
:1011B000D63107BED631873DC1CACABDFCB05BBFC0
:1011C000D63107BED63187BD36976CBEC1CA4ABE7E
:1011D000D631873D111898BE00000000D63107BEF9
:1011E000C1CACA3E4CFE283E717D7DBF4CFE28BE62
:1011F000D631073DC1CACA3D717DFDBED631873E9D
:1012000086E4B93ED631873ED63187BDC1CACA3DD4
:1012100000000000C1CA4ABED631073D540A75BF5E
:101220003697ECBED631873DD631873DC1CACA3D1F
:10123000D63107BEC1CACA3DD63107BDC1CACABE72
:10124000D631873D4CFE283E111898BE4CFE28BE74
:10125000D63107BD111898BED63107BD4CFE28BE49
:10126000D631073ED63107BE3697ECBE4CFE28BEBF
:10127000D631073ED631873D4CFEA8BE4CFE283EF7
:10128000D631873E4CFEA83EC1CACABDC1CA4ABEBD
:10129000D631073DC1CA4ABED631073D86E4B9BE44
:1012A000717DFDBED63187BD1118983EC1CA4ABEB8
:1012B000111898BEC1CACA3DD63107BD111818BF52
:1012C000D63187BE4CFEA83ED631073E36976CBE5F
:1012D000D63187BD3697ECBED63107BED631073D35
:1012E000C1CACABDFCB0DBBED63107BDD63187BD91
:1012F00000000000C1CACABD697131BF4CFE28BEE2
:10130000D63107BD36976C3EC1CACABED63107BEBC
:10131000D63187BDD63187BDC1CACA3D36976CBEAE
:10132000D63187BDFCB0DBBED631873E111818BF61
:101330004CFE28BED631073ED631873D86E4B9BE85
:10134000F3A40FBFF3A40F3F4CFEA83EC1CACABD11
:10135000C1CA4ABE111898BEC1CACABDD631873E9D
:1013600036976CBEFCB0DBBE4CFEA83EC1CA4ABE7E
:10137000D63107BE4CFEA8BEFCB0DB3E86E4B9BE4B
:101380004CFE28BED63107BDFCB05BBFD63107BDD1
:10139000D63187BD00000000D631073ED63187BE6A
:1013A000D63187BEC1CACABD4CFE283E717DFDBE86
:1013B000C1CACA3D00000000D631073D86E4B9BE6F
:1013C000A45742BF2E8B203F111818BF0000000009
:1013D000D631073ED63187BED63107BE1118983EAA
:1013E0004CFE283ED63107BFC1CACABD4CFE28BE3E
:1013F0002E8B20BFD63187BD86E4B9BE4CFE28BEF9
:1014000086E4B93ED63187BE1118983E111898BEB1
:1014100036976CBE1118983E00000000D631073D8B
:10142000FCB0DB3E111898BED63187BE4CFE28BEFC
:10143000C1CACABE4CFEA8BED63107BDD631873D53
:10144000D63107BD111898BEC1CACABED63187BEF3
:101450004CFE28BFD63107BED631073E36976C3ECC
:10146000C1CA4ABED631073EC1CA4ABFD63187BDBE
:1014700000000000C1CA4A3E4CFE283ED63107BDDE
:10148000D631073D4CFE28BE4CFEA83ED63107BEE5
:10149000C1CA4ABEFCB0DB3EC1CACA3DC1CA4ABECF
:1014A0004CFE28BE4CFE28BEC1CACABED63187BD7E
:1014B000C1CACABEC1CACABDC1CACABD1118983EF6
:1014C000C1CA4A3E00000000D63107BFC1CA4ABEA9
:1014D000111818BFC1CA4A3EC1CA4ABEC1CACA3DD4
:1014E000F3A40FBFFCB0DBBE111898BE00000000D3
:1014F000D631073DD631073DD631873ED63107BDBF
:10150000F3A40FBF4CFE28BED631073DD63187BDB0
:101510004CFE28BEC1CACABDD631873D4CFE28BE8E
:101520001118983EC1CACA3D111898BED63187BE5F
:10153000D63187BED63187BED63187BDC1CACA3E35
:10154000D631073ED631073FD63187BE4CFE28BE86
:10155000717DFDBE000000004CFE28BED631873EE6
:101560004CFEA8BEC1CACABE540A75BF4CFEA8BE76
:10157000C1CA4A3E111898BED63187BEFCB0DBBE48
:10158000717DFDBE4CFE28BE111898BED631873D38
:10159000C1CACABDD63107BED631073ED63187BDD6
:1015A00036976C3EC1CACABE4CFEA8BE86E4B9BE20
:1015B000D63107BD4CFE28BE0000000036976C3EB9
:1015C000D631073ED631073F2E8B203F4CFE283EBA
:1015D0003697ECBED63187BDD63107BED631073E31
:1015E0004CFEA8BE36976CBE3697ECBED63107BD12
:1015F000D631073F86E4B9BEFCB0DBBE4CFEA8BEC8
:10160000D63107BDD63107BD111898BED631873DFA
:10161000C1CACABDC1CA4ABED63187BD36976CBEE3
:10162000D63107BE86E439BFFCB0DBBEC1CA4ABEB4
:10163000C1CA4A3ED63107BDD63187BDD631073E35
:10164000D63107BF86E4B93E86E4B93E36976C3E94
:1016500086E4B9BE111898BED63187BED631073E92
:10166000C1CACA3DD63187BDD63107BED631073D86
:101670004CFE283F4CFE28BE86E4B9BE4CFE28BE78
:101680004CFE28BFFCB0DBBEC1CACA3E86E4B9BE70
:10169000D63107BD36976C3ED631073DD63107BEF1
:1016A00086E4B9BE36976CBFD63187BDD63107BE4A
:1016B000D63187BDC1CACABDD63187BD4CFEA8BED2
:1016C000C1CACA3D00000000717D7DBFD63187BE12
:1016D000111818BFFCB0DBBED63107BED631073EAD
:1016E000D63107BF4CFE283EC1CA4ABF00000000E9
:1016F000D63187BD4CFE283E4CFE28BE4CFEA8BE0F
:1017000047F882BFFCB05BBFD631873E4CFE28BE97
:10171000D63107BED631073DD631073E4CFEA8BEB6
:10172000111898BED63187BFC1CACABDD63107BD10
:1017300000000000D631073DD631073DD63187BDC8
:10174000D631073EFCB0DBBEFCB0DBBE36976CBECC
:10175000D63187BE111898BE4CFE28BED63187BD43
:101760003697ECBED631873DFCB0DBBEC1CA4ABE5F
:10177000C1CA4ABEC1CACABD00000000D63187BD79
:10178000697131BFDE3D53BF3697EC3E36976CBE74
:10179000C1CA4ABED63107BD00000000D63107BD20
:1017A00086E4B9BEDE3D53BFD63187BD86E4B9BEFF
:1017B000D631073ED631073D00000000D63187BD47
:1017C000D631073ED63187BED63187BDD63187BEEA
:1017D00036976CBEC1CACABDD63107BED631873D69
:1017E000FCB0DBBED631073DDA37ADBFD631873D21
:1017F0000000000036976CBED63107BED63107BF59
:1018000086E439BF86E439BFD631873D36976CBE52
:10181000D63107BEC1CA4ABED63107BDD63107BDD3
:10182000D63107BD5004CFBFD63187BEA45742BFC3
:10183000C1CA4ABED63187BDD631873DC1CACABDED
:101840004CFE283E4CFEA83E111898BE111898BEBA
:10185000111898BE36976CBE36976CBEC1CACA3E88
:10186000111898BE00000000D63187BF00000000AC
:101870004CFE283ED63187BE36976CBE3697ECBEFE
:101880002E8BA0BFD63107BFC1CA4ABEC1CA4ABE4D
:10189000D63187BDD63187BED63107BD111898BE67
:1018A000111898BE80DB00C086E4B9BE4CFE28BE8D
:1018B0001118983ED63107BEC1CACABD36976CBE54
:1018C000111898BEC1CA4A3E111818BF36976C3E0F
:1018D000D63187BEFCB0DBBE111898BEC1CACA3E65
:1018E000D63187BED631073D82DE93BFC1CACABE9C
:1018F000D63107BE36976CBEC1CA4ABEC1CACABE7F
:101900005216CE3E843493BE3A87EB3D6BA5303EF3
:101910003A876BBDD1049DBCD1041DBD3A876BBE17
:10192000D1049DBCD4277F3E3A87EB3D3A87EB3DFF
:10193000376409BE3A87EB3D3A876B3E0546443E25
:10194000D1049D3D1ED5263F9FE6573E3A876BBE8C
:101950008757F53E3764093E6BA5303ED1041DBD67
:10196000D1041DBD8757F5BE5216CEBE0546443E76
:101970006BA530BED4277F3E6BA530BE3A87EB3DCA
:10198000D1041DBED1049DBD0546C43ED4277FBEF3
:10199000D1049D3CD1049DBC9FE6D7BED427FFBE99
:1019A000D1041D3E0546443ED1041DBDD1049D3CDD
:1019B0003A876BBD054644BFD1041DBD3A87EBBED7
:1019C0000546C4BE45BD2B3F376409BED1049DBD4D
:1019D000D1049D3C000000006BA5303E376409BE79
:1019E000000000000546C43D843493BE0546C4BDD6
:1019F000D1041DBED1041D3D9FE657BE3A87EB3D85
:101A00009FE6D7BE054644BE00000000376489BE8D
:101A10000546C4BD376409BED1041DBED1049D3C3A
:101A20000546C4BE0546443ED1049DBD9FE657BE53
:101A3000D1049DBD3A87EBBDD1049DBCD4277FBEA8
:101A40000546C4BD3764893ED1041DBED1049DBE88
:101A50006BA5303ED1041DBED1049D3E3A87EBBD3F
:101A60006BA5303E00000000D1049DBCD1041DBD1B
:101A7000D1049DBD3A87EB3D0546C43DD1041D3ED2
:101A80001ED5A6BED1049DBCD1049DBD6BA5303E24
:101A9000D1049D3C9FE657BED1049D3DECB6E1BE0E
:101AA0001ED5A6BE3A87EB3DD1049DBCD1049DBD99
:101AB000D1041DBD8434933E8434933E3A876B3DFC
:101AC0009FE657BE0546443E3A876B3D054644BFF8
:101AD0005D4C0E3F6BA530BE3764893ED1049DBE80
:101AE000D1049D3C3A876BBD3A876BBD3A876B3D0D
:101AF0003A87EBBD3A876B3ED1049D3E6BA530BE65
:101B00003A876BBED1041DBEF8EC21BF3A876B3D0E
:101B1000D1049D3DD1049DBDD1049D3C6BA530BF3A
:101B20003A87EBBDD1041D3E0546C43DD1041DBD21
:101B30000546C43D3764893ED1049DBD5216CEBED4
:101B40009FE6573ED1041DBDD1049D3CD1041DBE6E
:101B5000ECB6E13ED1041DBD3764093E9FE657BE99
:101B6000376489BED427FFBE376409BF0546C43D2C
:101B7000B875BABE3A87EB3DD1049DBD0546C4BEDB
:101B8000D1049DBCB8753ABFD1041D3DD1041DBE22
:101B9000D4277F3E843493BE3A876BBD0546C4BECE
:101BA0000546C4BD3A87EB3D0546C43D3A87EB3D4B
:101BB0000546C4BDD1041D3E000000003A876B3EBF
:101BC0006BA530BED427FF3ED1041D3D928D35BF9D
:101BD0009FE6D73E0546C4BDD1041D3D3A87EB3D87
:101BE0003764093E5216CEBED1049D3C0000000071
:101BF0000546C43D3A876B3D1ED5A6BED1041D3DAA
:101C000024F086BFDF5D3FBF376409BEB875BABE3A
:101C10009FE6573E376409BE8757F5BE843413BF2D
:101C20000546C43D3764093E3A876B3D3A87EBBDB4
:101C30003A87EBBD054644BF9FE6573E6BA5B0BE55
:101C4000B875BABE3A87EB3D9FE657BED427FFBEB4
:101C50003A876B3D00000000D1049D3CD1041DBEBD
:101C60006BA5303E376409BED1041DBDF8EC21BF21
:101C70006BA5303ED1049DBDB875BABE3A876BBD29
:101C800052164EBF5D4C0EBF000000009FE657BECF
:101C9000D1041D3D3A876BBE376489BE9FE6573E2F
:101CA000D1049DBC3A876BBDD1041D3DD1041DBE3E
:101CB0003A87EBBDF8EC21BF3764093E3A87EBBDAC
:101CC0006BA530BED1041D3E376489BE0546C4BE37
:101CD0009FE6573ED1041D3D6BA5303E3A87EBBDD4
:101CE0003A876B3D00000000054644BE5216CEBE4A
:101CF000D1049D3DD1049D3D6BA5B03ED1041D3E58
:101D00000546C4BED1041D3D3A876BBDD1041D3DBF
:101D10006BA530BEB875BABED1041D3D9FE657BE57
:101D20009FE6573E0546C43D3A876BBDB875BABEBF
:101D30009FE657BE0546443E3A876B3D6BA5303E55
:101D40000546443E0546443E054644BED1041DBFFB
:101D50006BA5B03E3764093E3764093E1ED5A6BE6A
:101D6000AA1C18BF000000009FE6573ED1041D3D8D
:101D7000D1041DBD3A876BBD8434933E3A87EBBED8
:101D80009FE657BE9FE6573EF8EC21BFD1041D3EAB
:101D90003A87EB3D3A87EB3D3A87EB3D5D4C0EBF12
:101DA000B875BA3E6BA5303ED1041DBE6BA5B0BE62
:101DB00000000000D1049D3D6BA5303ED4277FBEBE
:101DC0009FE6573E376409BE3A87EBBD0546C43DE2
:101DD0006BA5303ED1041D3D0546443ED1049DBE59
:101DE0006BA530BFD4277FBE843413BFD4277F3E7A
:101DF000376489BE3A876BBD00000000107C04BFC9
:101E00003A876B3ED1049DBD0546C4BD0546C4BEA0
:101E10003A87EB3D000000003A87EBBD3A876BBE86
:101E20000546C4BDD1049D3C3A876B3DD1041DBD20
:101E30001ED5A6BED1049D3D00000000D1041D3E6C
:101E4000376489BE3764093ED1041D3DD427FFBEE7
:101E50005D4C0E3FD1049DBD00000000D1041D3D2E
:101E60003A87EB3D3A876BBE0546C4BDD4277F3E1B
:101E70003A87EBBDD1049D3DD1049D3C3A876BBDB3
:101E8000054644BE6BA530BE6BA5B0BE0000000089
:101E90006BA5303E3A87EBBD5216CEBED427FFBEAF
:101EA000D1049D3DD1049D3DD1049DBC376409BE44
:101EB000D1049DBED4277FBFD1041D3D1ED526BFB2
:101EC000D4277FBED1041DBD000000000546C4BE5E
:101ED000D1049D3DD1041DBDD1049DBC6BA5B0BEF8
:101EE0000546C43D843493BED427FFBE054644BF97
:101EF0003A87EBBD376409BE843493BED1049DBDDF
:101F00009FE6573E376489BE107C04BFD1049DBD57
:101F1000D1049DBDD1049DBED1041DBED1041D3E82
:101F2000928D35BF6BA5B0BED1041D3D376409BE8F
:101F30003A87EBBDD1049DBF376489BED1049DBEF5
:101F4000376409BED1041DBE6BA530BE376409BF1E
:101F50000546443E3A876BBE3A87EB3DD1049D3C33
:101F60005216CEBE1ED5A63ED1041D3ED1049DBD47
:101F70003A87EB3D3A876BBD9FE657BE376409BE93
:101F8000D4277F3E3A876B3DD1049D3C0546C4BDB6
:101F90003A876BBE0546C4BE3A876B3E3A876BBD37
:101FA000D1049D3D3764893E3A87EBBDD427FFBEFF
:101FB0003A876B3D0546C4BD3A876BBD3764893EA1
:101FC0000546443ED1041DBE0546C4BEDF5D3FBF8D
:101FD0006BA5303E376489BE0546C43DD1041DBEA5
:101FE000843493BED1041D3DD1049D3D3A87EB3D21
:101FF000054644BED1041DBDD1049D3D376409BED4
:10200000D1049D3CD4277F3E3A87EBBE3764093E1E
:1020100000000000D1049D3ED1041D3E6BA530BEE2
:10202000D4277F3E9FE6573E6BA530BE0546C43D94
:102030003A876B3DD1041D3DD1041D3E054644BE8B
:102040003A876BBE843493BE9FE657BED1041DBE53
:102050006BA530BE376409BE000000003A87EBBEB6
:10206000054644BE3A87EBBE3A87EBBE6BA5303ED1
:10207000D1041DBD3A876BBD3A876B3D3A876BBE75
:102080000546C43D0546C43D3A876BBE9FE657BE34
:102090003764093ED1049DBCD1049DBC376489BE20
:1020A0000546C43DD1041D3D3764093ED1049D3D24
:1020B0000546C4BD45BD2BBFD1049DBCD1041DBD8B
:1020C0001ED5A6BED1049D3D000000003A876B3DA1
:1020D000D1049D3E3A876BBDD1041D3E6BA5B03E39
:1020E0003A876B3ED1041DBE9FE657BED1049DBD0D
:1020F000D1049DBE0546443ED1049DBD3764093ED2
:102100003A876BBD00000000D1041DBFD4277F3E7D
:10211000D4277F3E3764093ED1041D3D00000000F6
:102120003A876B3DD1049D3C0546443E3A876B3D62
:10213000376409BE107C04BFD1049DBD8757F5BE2E
:1021400000000000D1041DBD3A87EB3D3A87EB3D0E
:10215000D1041DBDB875BABE0546C43DD1049DBEAF
:10216000376409BED1041DBD5216CEBE843493BE61
:1021700000000000376409BE6BA530BE0546C43DB3
:102180006BA5303ED1041DBEB875BABE3A87EB3D93
:102190006BA5303ED1049DBCD1049D3C3A876B3D7C
:1021A000D1041DBD3A87EBBDD1041D3ED1041D3DB8
:1021B000D1049DBC3A876BBFD1041DBD3A876BBE6D
:1021C0003764893E0546C43D376409BED1049DBECF
:1021D0006BA5303E1ED5A6BE0546443E8434933ED4
:1021E0009FE6D7BE3A876B3EB8753ABFD1049DBC17
:1021F0001ED5A63E3A876BBDECB6E1BE3A87EB3DF5
:10220000376409BE3A876BBD3A876BBE3A87EB3DB0
:10221000054644BE9FE657BE3764893E0000000075
:10222000D1049D3DD4277F3E376409BED1049DBEB5
:102230008434933E376409BFD1041DBD6BA5B03E05
:10224000D1049D3D0546443E3A87EBBE79FE52BF20
:102250003764093EB8753ABF3764093E9FE6573E7A
:10226000D1041DBE3A876B3DECB6E1BED1041DBE64
:102270000546C4BDD1049DBDD1049D3CD427FFBEFD
:102280009FE657BED1049D3DB875BABE3A87EB3D77
:10229000D4277FBE3A87EBBD0546443E376409BE6E
:1022A000376409BED1041D3E376489BE9FE6573EA0
:1022B000D1049D3DD1049DBDD1041D3E0546C4BD44
:1022C0003A876B3D00000000D1049D3C0546C4BD2B
:1022D0003A876BBE0546C4BE3A876B3D45BD2BBFF2
:1022E0003764093ED4277FBE0546C4BEB875BA3EE2
:1022F0003A87EBBDD1049D3CD1041D3D9FE657BEFE
:10230000D1049D3E3764893E1ED5A6BE0000000064
:102310003A87EBBE0546443ED1049D3C6BA530BEDA
:10232000D1049D3E000000003A876BBDD1041D3EE4
:10233000D1041D3E3A876BBDD1041D3DD1041D3D26
:102340000546C4BE376489BED1041D3DD1049DBD80
:102350005216CE3ED1041DBD0546C4BD3A876B3D25
:10236000D1049DBCD1049DBC054644BED1049DBD95
:10237000843493BE0546C4BD6BA530BED1049D3DDB
:10238000D1049D3C3764093EB8753ABF0546C43D4B
:10239000ECB6E1BED1041D3DD1049D3DD1041D3DEF
:1023A0003A876B3DD1041DBD3764093ED1049DBC05
:1023B000D1049DBDB875BABE843493BE376489BE5E
:1023C000D1049D3D376489BED4277F3E00000000C4
:1023D000D1049DBC376409BED1049DBDB875BABE99
:1023E000000000000546C4BE3A876BBD6BA530BE39
:1023F000D1041D3E376409BE3A87EBBD3A876BBDF9
:102400003A876B3DD1049D3C3A87EBBD6BA5303ECE
:102410009FE657BED1049D3ED1041D3ED1049D3C94
:102420003A87EB3D9FE6573E3764093E00000000C7
:10243000D1049DBDD4277FBF3764093E054644BE05
:10244000D1041DBD3A876BBDD1041D3ED1041DBE14
:10245000B875BA3ED1049DBCD1049D3C3A87EB3D92
:102460000546443ED4277FBE2C2E49BFD1041DBE55
:102470003764893E3A876BBD6BA5303E0000000093
:102480003764093E3A876B3DD1041DBED1049D3DA2
:102490003A876BBE3A876BBD9FE6573E3A876B3DE6
:1024A0003A87EB3D9FE6573E3A876B3D376489BEDE
:1024B0003764093E139F66BF0546C43D3764893EB5
:1024C000054644BED1049D3C376409BE9FE6D7BE95
:1024D000D1049D3E376409BFD1049DBC9FE6D73E21
:1024E0009FE6573E3764893ED1049D3C9FE657BE28
:1024F000376409BED1041D3D0546C43D376409BE9D
:102500003A87EBBDD1041D3DD427FFBED1041D3D4C
:10251000D1049DBED1041DBD0546C43D6BA530BE92
:102520009FE6573ED1041D3ED1049DBC9FE6573E19
:10253000D1049D3C0546C4BD3A87EB3D3A876BBD4F
:102540000546C4BD3A876BBE3A876B3D3A876B3D03
:10255000376409BE6BA5B0BED4277FBE843493BE5A
:10256000D1041DBDD1049DBC9FE6573ED1041D3E44
:102570003764093E9FE6573E9FE657BE0546443EF8
:10258000E720D3BC78AB3B3C093624BD78ABBBBD60
:1025900078ABBBBD093624BD0936A4BD527B183DBE
:1025A0009AC08C3C306647BDE720D3BD78AB3BBDBD
:1025B00078AB3BBB56966A3C78AB3BBCE720D3BCC0
:1025C0009EDB5EBD78AB3B3B527B183D78AB3BBCA2
:1025D0005696EABC78ABBB3BC0F02FBD00000000B4
:1025E000C0F0AFBDC0F02FBD78AB3BBD56966A3C86
:1025F000C0F02F3D78AB3BBB56966ABCE20581BD6F
:1026000056966ABDE720D33CC0F02F3D0E5176BDF3
:1026100078AB3BBE9AC08CBC3EE386BDC0F02FBDFC
:10262000E720D33C9EDB5EBD093624BEC0F02FBD43
:102630005696EABC78ABBB3BE20581BD56966ABDB7
:10264000E205013D9AC00C3D0936A43C56966ABD90
:10265000527B18BD5696EABDAD589EBD9AC08CBC43
:10266000E72053BD3066473D093624BD0E5176BD87
:1026700056966A3C527B183D78AB3BBBE72053BD76
:102680000000000078AB3BBC9AC00CBCAD589EBDAE
:10269000527B18BDC0F02FBD78AB3B3C0E5176BDD0
:1026A000E720D33C9AC00C3DF69D12BE5696EABC7C
:1026B00078ABBBBC78ABBBBC56966A3CE20581BD2F
:1026C00078ABBB3C56966ABC9AC08C3C78AB3B3B23
:1026D0009AC00CBD78AB3BBB9EDB5EBD0936A4BC8B
:1026E0001CCEB5BD56966ABC56966A3CE20501BD45
:1026F000E205013DC0F02F3D9AC08CBC527B98BDD5
:10270000E205013DC0F02FBDE20501BD56966A3CD1
:10271000527B98BDE720533DC0F0AFBD9AC08CBC42
:1027200000000000527B183D9EDBDEBD56966ABC61
:102730009AC00C3D9AC00C3CE720533D78AB3B3C23
:10274000306647BDE20501BD527B18BDC0F02F3D8C
:102750003EE386BD527B183D78ABBBBC5696EA3C47
:1027600078ABBBBC78AB3BBB78AB3B3C78ABBBBC82
:10277000527B183D527B183D9AC08CBDE720D3BCDC
:1027800000000000E20501BD9AC00CBDE720D33C6B
:10279000527B18BD56966ABCE20581BD78AB3BBD45
:1027A0000E5176BDE72053BD527B18BD9AC00C3D3B
:1027B0000936A4BD3066473D9AC00C3D78ABBB3BA3
:1027C00056966ABD9AC08CBC9AC08CBC78AB3BBB99
:1027D00078ABBBBCC0F02FBD1CCEB5BDE20501BDC2
:1027E0000936A4BDE720533D9AC00CBC527B18BDEE
:1027F000E205013D9AC00C3D78AB3BBC78AB3BBCDD
:1028000078ABBBBBAD589EBDC0F02F3DE20501BD0E
:102810000936A4BD9EDB5E3D78ABBBBC78AB3BBC50
:10282000093624BD9AC00C3C90F403BE093624BD81
:10283000527B18BD78AB3B3B093624BD78AB3BBD22
:10284000306647BD527B18BD0936243D9AC08CBD09
:102850009EDB5E3D78AB3BBC78AB3BBDE20501BD8A
:102860005696EABC78AB3BBDC0F02FBD9AC00CBDFC
:102870003066473D78ABBBBC9AC08C3CE72053BD6B
:10288000C0F02F3DE20501BD56966A3C5696EABC63
:102890003066C7BD5696EABC093624BD56966A3CDA
:1028A000E205013D78AB3BBCE20501BEE205013D1E
:1028B000E720533DE20501BD9AC08C3C9AC08C3C98
:1028C0001CCEB5BD78AB3B3BE20501BD9AC08C3C4C
:1028D000527B18BDC0F0AFBDE20581BDE205813D70
:1028E000E720D3BCE720533D9AC00CBC78AB3B3B00
:1028F0000936A4BC78ABBBBC9EDB5EBD9AC00CBDE8
:10290000093624BDE720D3BDE720D3BCD488C1BDA0
:10291000E72053BD78ABBBBC093624BD093624BDC6
:1029200056966A3D9AC08C3C48AF0FBE78AB3B3C94
:10293000C0F02FBDE720D33C9AC08CBC093624BD23
:10294000527B98BD0936A4BC78AB3BBD9EDB5E3D97
:1029500078ABBB3B0000000078ABBBBD78ABBB3BAA
:1029600056966A3CE72053BDE20581BD093624BD79
:1029700078ABBBBB9AC08CBD5696EABCE72053BD72
:10298000E20581BDE720D3BD5696EABCC0F02FBD5D
:10299000FAB8E4BD3066473DD488C1BD9AC00CBCCE
:1029A0009AC08CBCE20501BD9EDB5EBDE205013D27
:1029B000E72053BD78AB3B3C3EE386BD3066473DE8
:1029C0001CCEB5BD0936A4BC093624BD78AB3B3B53
:1029D00056966A3C9EDB5EBD9AC00CBC56966ABC9D
:1029E000E205013D78AB3BBC0E51763D9AC08CBCF4
:1029F0000E5176BD78AB3B3CE720D3BC78AB3BBDFA
:102A0000527B183D78ABBBBB9AC00CBC00000000E9
:102A10009EDB5EBD3066473D093624BD78ABBBBC4E
:102A200078AB3B3C0E51763D78AB3BBC56966ABCCE
:102A30005696EA3C5696EABC527B183DE20501BD2B
:102A40009AC08CBD78ABBB3BC0F02F3D527B183D8C
:102A50009EDB5EBD527B98BD9AC00CBD78ABBB3B84
:102A60000E5176BD9AC00CBD78AB3B3DE720D33C00
:102A700078ABBBBB78AB3BBD78ABBB3C9AC00CBD65
:102A8000E720D33CE720D3BC093624BDE20501BDD5
:102A900056966ABDE205013D00000000E720D3BC68
:102AA000C0F02F3D306647BDD488C1BD78AB3B3BFD
:102AB00078AB3BBD78AB3B3D78ABBB3C6513AABD67
:102AC00056966ABCC0F02F3D3EE386BD56966A3CE2
:102AD000E20581BD78AB3B3CC0F0AFBD0936243D7B
:102AE00000000000E72053BD3EE386BD9AC00CBC49
:102AF00056966ABC9AC08CBC5696EABCAD589EBD30
:102B0000E72053BD9AC00CBD78AB3BBDE720D3BCDA
:102B100078ABBB3BE720533D78ABBBBD9AC00CBD47
:102B20000936243DB273F0BDE20581BD527B183DEC
:102B30000936A4BD78AB3BBB78ABBB3C9AC08CBD1F
:102B4000E20581BD78ABBBBC56966ABD78AB3B3C19
:102B500078ABBBBC78ABBBBB093624BD78ABBB3C08
:102B60009AC00C3C527B18BD0936A43C9AC00CBCE0
:102B70003EE386BD56966A3C9AC00CBC3EE386BDD9
:102B80009AC08C3C0936A4BCAD589EBD78AB3B3C8A
:102B90005696EABD78ABBB3C306647BD0936A4BD4E
:102BA00078AB3B3B3066C7BD43FED8BD0936A4BCFD
:102BB0006513AABD56966ABC5696EABC5696EABC00
:102BC0000E5176BD527B183D78ABBBBB093624BD98
:102BD0009AC08CBC3EE386BD306647BD9AC00CBD32
:102BE00078AB3BBC9EDB5E3D3EE386BD306647BDB9
:102BF00078ABBB3B78AB3BBB9AC00CBC527B98BD5F
:102C0000AD589EBD78AB3BBC78AB3B3DF69D92BDCD
:102C1000093624BD56966A3C1CCEB5BDE72053BD8F
:102C200078AB3B3C00000000527B18BD306647BDCE
:102C30009AC08C3C9AC00CBD3066473D0936243D95
:102C40000E5176BD78AB3B3C3EE386BD78ABBB3BDB
:102C5000E20501BD78ABBB3C78AB3BBB0936A4BCFD
:102C6000F69D92BD0936A4BC306647BD9EDB5EBDB5
:102C70000000000056966ABD78AB3BBD78AB3BBB0D
:102C800056966ABC78AB3B3B78AB3B3C9AC08C3CDD
:102C90000E51F6BD9EDB5EBD78AB3BBD78ABBB3C59
:102CA00056966A3CE720D33C9AC08CBDE205013DB4
:102CB0009AC08CBC0E5176BD78ABBB3B9AC00C3C25
:102CC0003EE386BD0936A4BC0936A43C9AC00C3C40
:102CD0009AC00CBC3066C7BD527B18BDE720D3BC80
:102CE0001CCEB5BD527B183DE20501BD78AB3BBCA7
:102CF000C0F02FBDE720D3BC78ABBBBCE720D3BC72
:102D0000E720D33C3EE386BD78AB3BBB5696EABC9E
:102D1000093624BD56966ABC78ABBBBCE720D33CD1
:102D20009EDB5EBDE20501BDC0F02FBD78AB3B3B35
:102D30009AC00CBC5696EA3CE20581BD78ABBBBCA0
:102D40001CCEB5BD5696EA3C9AC00C3D78AB3B3CD8
:102D50003066473DE20581BD9AC00CBDE720D33CFB
:102D600078ABBB3C527B98BDE20581BDC0F02FBD66
:102D700078ABBBBB56966A3C78ABBBBC78AB3B3BF5
:102D8000C0F02FBDECD109BE78ABBBBCD488C1BDAF
:102D9000C0F02FBDC0F02F3D1CCEB5BD78ABBB3B06
:102DA000C0F02FBD093624BD5696EABCE720D3BC3F
:102DB0009AC08C3C5696EABC78AB3BBCE720533DAE
:102DC000E20501BE56966ABD3EE386BD9AC00CBDC3
:102DD000093624BD9AC08CBD0936A4BDE720533DF9
:102DE00078AB3BBB56966ABC78AB3B3C9EDB5EBD8A
:102DF000000000003EE386BD9AC00CBC9AC00CBD2A
:102E0000306647BD8B43CDBD093624BD56966ABD9D
:102E1000C0F02FBDE72053BD093624BD56966ABDCC
:102E200078ABBB3BAD589EBD527B98BD9EDB5E3DF3
:102E300078AB3BBDC0F02F3D78AB3B3B3066473DA8
:102E40000936A4BD78ABBB3BE20501BDE720533D8D
:102E5000E205013D9AC08C3C78AB3BBB78AB3BBBF9
:102E600078AB3BBB78ABBBBB56966ABC78ABBB3B85
:102E70005696EA3C9EDB5EBD9EDB5EBD9AC00CBDF5
:102E80003EE386BD3EE386BD78ABBB3BC0F0AFBD45
:102E900078ABBB3CE720533DFAB8E4BD56966A3C9C
:102EA0009AC00C3D78AB3B3DFAB8E4BD78AB3B3BF8
:102EB0005696EABCE720D33CE720D3BC78AB3BBBBB
:102EC00078AB3BBB5696EA3C78AB3B3C78AB3B3CA3
:102ED0009AC00C3D9EDB5EBD0936A4BD527B18BD79
:102EE000F69D92BDE205013DE72053BDE205813D1F
:102EF00078ABBB3C78AB3B3B093624BD56966ABCED
:102F0000527B98BD8B43CDBD78ABBBBB78ABBB3C94
:102F100078ABBBBBC0F02F3DE20501BD56966A3CC5
:102F2000E72053BD0000000078AB3B3C78ABBBBB57
:102F3000093624BD5696EA3C56966A3C527B18BD2B
:102F40009AC08CBD56966ABD9AC08C3C9AC00C3D06
:102F5000527B183DC0F02F3D0E5176BD9AC00C3DFE
:102F600056966ABC093624BD78ABBB3C78ABBB3BFC
:102F70005696EA3C9EDB5EBD9AC00CBC0000000089
:102F8000527B18BDF69D12BE78ABBB3CC0F02FBD86
:102F90000E5176BD78AB3B3D43FED8BD9AC00CBC0C
:102FA00078AB3BBC78ABBB3CC0F0AFBD9EDB5E3DBD
:102FB00056966A3C9AC00CBCE720D3BC00000000C7
:102FC00078ABBBBCE720D3BC78AB3BBC78AB3BBB9E
:102FD00078AB3BBDC0F02F3DE205013D9AC00C3CF3
:102FE000C0F02F3D78ABBB3B0936A4BD78ABBBBB73
:102FF00078ABBBBC0000000078AB3BBBE205013DF9
:10300000E20501BD0936A4BD9AC00CBCF69D92BD77
:103010000E5176BD527B18BD78AB3B3B093624BDC3
:103020009AC00CBCE72053BDE720D3BC9AC08C3CAF
:10303000E720533D78AB3BBB0936A4BC306647BDA7
:1030400078ABBBBC527B183D5696EABC9AC00CBD0F
:103050005696EABC78AB3B3BE20501BD093624BD80
:103060000E5176BD9AC00C3C78AB3B3B9AC08CBDF0
:1030700078AB3B3D0936A43C3066473DE720D3BCE6
:103080000936A4BC0936A4BCE20581BD00000000DD
:1030900043FED8BD0936A4BC000000000936A43C9C
:1030A000C0F02F3DE720D3BC6513AABD78AB3B3BF6
:1030B00056966A3C78AB3BBD56966ABD5696EA3C3E
:1030C00078AB3BBD78AB3BBD9AC00C3CE72053BD11
:1030D000000000000936243D5696EA3C0936A4BD9E
:1030E0009AC00CBC78ABBBBCC0F02FBD78AB3B3DED
:1030F000AD589EBD78ABBBBCE205013D3EE386BD4D
:10310000E720D33C78AB3BBD9AC08CBC306647BD52
:10311000AD589EBD78ABBBBCE720D33C78ABBBBB06
:103120009AC00C3D5696EABC527B98BDE205013D23
:1031300078AB3B3B9AC08CBC56966ABC78AB3BBB29
:10314000E20501BDE72053BD78AB3BBB9EDB5EBD16
:103150009AC00C3CE205013D0936A43CE720533DF2
:10316000527B183D78AB3B3DE720D33C78AB3B3BF3
:103170003066473D0936A4BC0936A4BC78ABBB3CDD
:103180009EDB5EBD527B18BDE20501BD0936A43C45
:1031900078ABBBBDE72053BD78ABBB3B9AC00C3DC1
:1031A000527B183DE720D3BC78AB3BBDE20581BD27
:1031B0005696EABC56966ABD3066473DC0F02F3D34
:1031C00056966ABD3066473D78AB3B3BE720D33C23
:1031D000E720533D9AC08CBC6513AABD9AC08C3CB5
:1031E00078AB3BBC78ABBBBB9AC00CBDE720D3BC73
:1031F0005696EA3CE205013D78AB3B3C527B18BD5C
:103200008CA289BC4D7793BD6E36A2BDB1B4BFBD53
:103210000E4C9DBB15F26BBD9348D8BC4D77133D4A
:10322000D6C675BD0E4C1D3BED8C8EBD0E4C1DBD26
:103230000E4C1DBCD6C675BD9348D8BC541D62BD8E
:10324000541D62BD51CA3ABD6E36A2BD8CA289BC66
:103250002CB884BD4D77133D15F2EB3B979BFFBC1B
:1032600090F5B0BC934858BD129FC4BC934858BD5C
:1032700090F5B03C8CA289BD8CA209BDED8C8EBDB1
:1032800015F26BBCD6C675BDAE6198BD129FC4BDAC
:103290000E4C9D3B9348D8BC51CA3ABD934858BD8B
:1032A0009348583D0E4C1DBCD2734E3D934858BDBB
:1032B000934858BD0E4C9DBC15F26BBD90F5B0BC4B
:1032C0000E4C1DBD90F530BD51CA3ABD934858BD56
:1032D0002CB884BD129F44BD15F2EBBB8CA2893C77
:1032E000F432DDBDCF2027BD90F5B03C129F44BC29
:1032F0008CA2893C0E4C9D3C51CABABD2F0BACBD73
:103300000E4C1DBDED8C8EBD6E36A2BDD2734EBD72
:103310000E4C1D3B9348583D000000000E4C9DBCD8
:10332000129F44BC6E36A2BDD2734EBD15F2EBBBEC
:103330000E4C9DBB4D7793BD4D7713BD979BFF3CC6
:10334000129FC4BC979B7FBD129F44BD0E4C9DBD78
:10335000D273CEBD9348D8BC8CA289BD90F530BD48
:1033600051CA3ABD0E4C9D3C934858BD129FC4BCF7
:1033700090F530BD0000000090F5B0BD15F26BBCBB
:1033800015F26BBC541DE2BD129F443D9348D8BC5E
:103390009348D8BC129FC43C8CA209BD0E4C9DBB67
:1033A000D6C6753DD2734E3D541D62BDCF20A7BD1C
:1033B00015F26BBDB1B4BFBD6E36A2BD2CB884BDD5
:1033C0000E4C9DBB15F2EBBCD2734E3D934858BDDD
:1033D0000E4C1DBD15F26BBD9348D8BC8CA289BCA8
:1033E00015F26BBD8CA289BC129F443CD2734E3D3A
:1033F00051CA3A3D90F5B0BC15F2EB3C8CA289BDA8
:103400000E4C9DBCAE6198BD129FC43C335ED3BDD3
:10341000D6C675BD15F2EB3B0E4C1DBD15F2EBBCCF
:103420000E4C1D3C15F2EBBB541DE2BDCF2027BD59
:1034300015F26B3CED8C8EBD15F2EB3B8CA289BC7A
:103440000E4C9D3CD6C675BD0E4C9DBBD2734EBD79
:1034500090F5B03C15F26BBD90F5B0BC8CA2893CE8
:103460000E4C9DBC90F5B03C90F5B03C90F5B0BCD6
:10347000979B7FBD8CA2893C90F5B03C15F26B3CCC
:10348000AE6198BD979BFFBD4D7713BDD6C6F5BD08
:103490009348D8BD4D77133D9348D8BC9348D8BCCA
:1034A00015F2EBBBAE6198BD90F5B0BC129F44BD68
:1034B00051CA3A3D0E4C1D3C8CA2893C0E4C9D3BA2
:1034C0000E4C1DBB15F26BBD90F5B0BC15F2EB3C7C
:1034D00051CA3ABD129F443CCF2027BDD6C6753D88
:1034E0008CA289BD51CA3ABD129FC43CD6C6753D57
:1034F000AE6198BD90F5303D2F0BACBD129FC43C22
:10350000B507E7BD51CABABD0E4C9D3BED8C8EBDD3
:1035100090F5B0BC934858BD0E4C1D3B15F2EB3CEA
:10352000129F44BD0E4C1DBD934858BD335ED3BDA4
:103530000E4C1D3C51CA3ABDD6C675BD90F5B0BD06
:103540000E4C9DBC15F26BBD0E4C1DBCCF2027BD93
:1035500015F2EB3C51CABABD2F0BACBD90F5B03C97
:10356000541D62BD0E4C9DBDCF20273D0E4C9DBB12
:10357000000000000E4C1DBB15F26BBD15F2EBBB3D
:1035800015F26BBDB1B4BFBD129FC43C4D7713BDE6
:1035900015F26BBD4D77133DD6C675BD979BFF3CAD
:1035A0000E4C1DBB0E4C1D3B9348D83C4D7713BDB4
:1035B0000000000090F5B0BC9348D83C4D7793BD17
:1035C0009348D8BC8CA2893C90F5B03C15F2EBBB7B
:1035D000AE6198BD90F5B0BDD2734EBDD2734E3D75
:1035E0004D7713BD8CA2893C0E4C1D3D15F2EBBCF2
:1035F00090F5303D90F5B0BCCF20A7BD7289C9BD14
:1036000090F5B03C0E4C1DBD4D7713BD90F5B0BD8F
:103610000E4C1DBD0E4C1D3D335ED3BD0E4C1D3CEE
:10362000129F443D90F530BD15F2EB3B0E4C9D3B97
:103630004D7713BD4D7713BD0E4C9DBD335ED3BD8D
:103640002CB884BDCF2027BDB1B4BFBD15F26BBC73
:1036500015F2EBBB0E4C9DBB129F44BC129F44BDA8
:103660000E4C9D3B129F44BC51CA3A3D979BFFBCF8
:10367000129FC4BC4D7713BD0E4C9DBB129F443CA2
:10368000CF2027BD8CA289BD0E4C1DBD979BFFBCD2
:10369000B1B4BFBD15F2EB3CD2734EBD90F5B03C5A
:1036A00015F2EBBC15F2EBBB0E4C1D3D6E36A2BD08
:1036B000541D62BD4D77133D934858BD8CA289BD02
:1036C000979B7FBD0E4C1DBC15F26BBD979BFF3CBD
:1036D000979BFF3C2F0BACBD129F443C8CA2893CB6
:1036E00051CA3ABD15F2EBBB15F2EBBC90F5B0BC7C
:1036F0009348D8BD129F44BD15F26BBC000000007A
:103700004D7713BDAE6118BE8CA289BC0E4C1DBE98
:10371000D273CEBD0E4C1DBB6E36A2BDD2734EBD54
:10372000129F443D4D7793BD0E4C1DBC4D7793BD0C
:1037300015F26BBD979B7FBDCF20A7BD90F5B0BDA7
:10374000541D62BD979BFFBC129FC4BC979BFFBCDE
:10375000000000000E4C1DBC000000000E4C1DBC03
:103760000E4C1DBC15F2EBBC129F443D979BFFBC59
:10377000129FC4BC0E4C1D3B8CA2893D979B7F3D84
:10378000934858BD0E4C9DBDB1B4BFBDDED61ABE28
:10379000934858BD15F2EB3B90F5B0BD15F26B3C6C
:1037A000D6C6753D6E36A2BD15F2EBBB934858BD2B
:1037B000D2734EBD15F26BBC0E4C9D3B90F5B0BD67
:1037C0000E4C1D3B129F44BD0E4C9D3B15F2EBBBB6
:1037D000541D62BD8CA289BC4D7793BDD2734E3D02
:1037E00015F26BBD6E36A2BD129F44BC90F5303D04
:1037F000D6C6F5BD90F530BD0E4C1DBB90F5B0BCE6
:10380000CF20A7BD0E4C9DBC15F26BBC2CB884BD5F
:10381000934858BD0E4C1DBC0000000015F26BBC57
:103820004D7713BDCF20A7BD15F2EBBC0E4C9D3CD0
:1038300015F2EBBC0E4C1DBC0E4C1DBDAE6198BD0F
:103840008CA2093D8CA289BD0E4C9D3B90F5B0BC6D
:103850002CB884BD979BFFBC0E4C9DBC90F5B03C32
:103860004D7713BD129FC43C541D62BD9348D83C94
:1038700090F530BD90F5B0BC541D62BD129F443D23
:103880000E4C1DBD15F2EBBC129F44BC7289C9BD24
:103890009348D8BD0E4C1D3C129F44BC129F443C23
:1038A000129F44BC8CA209BDED8C8EBD15F26BBD80
:1038B00090F5B03C15F2EBBC90F5B0BC15F26BBCCA
:1038C0000E4C9D3B129FC4BC15F26B3C0E4C1DBBB5
:1038D000979B7FBD934858BD0E4C1D3B0E4C1D3B26
:1038E00015F2EB3B129F443C51CA3A3DCF20273D95
:1038F00015F2EBBC00000000129FC4BD00000000E8
:10390000129FC4BC36B1FABD15F26BBC129F44BD08
:1039100090F5B0BD15F2EBBBD2734EBD9348D83CC9
:1039200015F26B3C4D7713BD934858BD8CA289BDF1
:10393000D2734E3D979B7FBD2F0BACBD15F26BBD77
:103940002CB884BD934858BD541D62BD9348D83CE3
:10395000979B7FBD129F443C129F44BC15F2EB3BEA
:10396000129F44BD2CB884BDD2734EBD129F44BD7E
:1039700015F2EB3B0E4C9DBC15F2EB3B8CA2893C47
:10398000541D62BD979BFFBD0E4C1D3C8CA209BE11
:10399000F0DFB5BD9348583D9348D8BD7289C9BD85
:1039A000D6C675BD15F26BBD541D62BD6E36A2BD87
:1039B000ED8C8EBD0E4C1D3B0E4C9DBDD2734EBD8D
:1039C00051CA3ABDCF20A7BD979B7FBD15F2EB3CF6
:1039D00090F5B03C51CA3A3DAE6198BDD6C675BDB2
:1039E0000E4C9D3BF0DFB5BD90F5B03C90F5B03C82
:1039F000129F44BD90F5B03C129FC43C0E4C1D3D3F
:103A00008CA289BC2CB804BE15F2EBBB0E4C1DBDBC
:103A1000D273CEBD0E4C9DBCCF2027BD0E4C1DBC1D
:103A2000129F443CED8C8EBD541DE2BD2CB884BD6C
:103A30000E4C1DBB15F2EBBB00000000979BFFBCBA
:103A40000E4C1DBC15F26BBC8CA289BD9348D8BC32
:103A5000934858BD129FC43C129F44BDD2734EBDC3
:103A60000E4C9DBD0E4C9D3C8CA289BCED8C8EBD38
:103A700051CABABD4D7793BD979BFFBC90F5B03C42
:103A800015F26BBC15F26BBD8CA289BDF432DDBDA5
:103A9000B1B4BFBD51CA3A3D979B7FBDF0DFB5BD04
:103AA0000E4C1DBB15F2EB3B4D7713BE0E4C9DBB70
:103AB00015F2EBBC15F2EB3B15F26BBD934858BD0C
:103AC000129F44BD541DE2BD51CABABD6E36A2BD9F
:103AD000D2734EBD979BFFBC4D77133D15F2EB3B68
:103AE00075DCF0BDCF2027BD2F0BACBD0000000062
:103AF000129F44BDCF2027BD0E4C9DBC15F2EBBBE1
:103B00004D7793BD0E4C9D3C8CA2893CED8C8EBDB7
:103B10000E4C9D3C0E4C1D3D0E4C9DBC2F0BACBD68
:103B200015F26B3C000000000E4C1DBD4D7793BD9F
:103B30000000000015F2EBBC8CA209BD9348D8BC74
:103B40008CA2093D8CA209BED6C675BD15F2EB3B11
:103B50000E4C9DBB129F44BD129F44BD15F26BBC21
:103B600015F2EB3B9348583DD6C675BD8CA2093D76
:103B7000D2734EBD9348D8BC90F5B03C51CA3ABD03
:103B80009348D83C15F2EBBC129F443D979BFFBC79
:103B9000934858BD0E4C9DBC8CA289BC51CA3ABDFD
:103BA00051CA3A3D15F26BBC129F44BC6E36A2BDA1
:103BB0000E4C9DBB0E4C1D3CED8C8EBD4D77133DC8
:103BC000129F44BD75DCF0BD90F5B0BC0E4C1D3DA0
:103BD0000E4C1DBC15F2EBBB15F2EBBC9348D83C68
:103BE0009348D8BC4D7713BD7289C9BD979B7FBDE3
:103BF0000E4C1D3C8CA289BC0E4C1D3D979B7FBD7D
:103C00000E4C1DBC51CABABD934858BDCF2027BD2C
:103C1000979BFF3CD2734E3DFC4202BE129F44BDB7
:103C20000E4C1DBB90F5303D335ED3BD541D62BDBF
:103C300015F2EB3B51CA3ABD979BFFBC0E4C9DBDA4
:103C4000541D62BD0E4C1DBBD2734EBD51CA3A3DD0
:103C50002CB884BDCF2027BD129F44BD0E4C1D3D06
:103C600015F2EB3C8CA2893C15F26BBDD6C6753DB6
:103C700015F2EBBB129F443C129FC43C979BFFBCC8
:103C80009348D83C90F5B0BD129FC4BC0E4C9DBD6E
:103C9000129FC4BDD2734E3D979BFF3C0E4C1D3B03
:103CA0004D77133D00000000541DE2BDB1B4BFBD0F
:103CB000979BFF3C934858BD8CA289BC129FC4BC03
:103CC000ED8C8EBD51CA3ABD2CB884BD51CA3ABDE7
:103CD00090F5B0BC15F2EB3C2CB884BDCF20273D4D
:103CE0000E4C1DBBD6C675BD0E4C1D3C90F5303D2F
:103CF000541DE2BD90F530BD129F44BD8CA209BD9C
:103D0000D2734EBD7289C9BD129F443C90F530BD3F
:103D10008CA289BD0E4C1DBDAE6198BD0E4C1D3CE4
:103D20000E4C9D3C979B7FBD129F44BCD2734EBDF1
:103D3000D6C6753D541D623D51CA3ABD6E36A2BD10
:103D400090F530BD9348D8BD90F5B0BD934858BDAF
:103D5000000000008CA2893C0E4C1DBB15F26BBD0F
:103D600090F5B0BC0E4C9DBC0E4C9DBBCF2027BD2A
:103D70004D7793BD51CA3ABD4D77133D15F2EBBC5B
:103D80000E4C1D3D90F5B0BC15F26B3C129FC4BCAF
:103D900015F2EBBB129FC43C15F2EB3B0E4C1DBC65
:103DA000D6C6753D15F26B3C4D77133D0E4C1DBDCF
:103DB000541D623D8CA2893C0E4C9DBD0E4C1D3B9A
:103DC00090F5B03C9348D8BC8CA209BD129FC4BCEE
:103DD0004D77133D4D7793BD0000000015F2EB3B8E
:103DE000D2734EBD9348D8BC129FC4BC8CA209BDEF
:103DF00015F26BBD129F44BD979BFF3C15F26BBC47
:103E0000979BFF3C15F26BBC15F26BBD8CA2093D74
:103E10004D7793BDD2734E3D4D77133D00000000AA
:103E200015F26B3C8CA2893C129F44BC0E4C1DBD0C
:103E3000000000008CA289BCD2734EBD15F2EB3B92
:103E4000129FC43C934858BDB1B4BFBD9348D8BC81
:103E50007289C9BD15F2EB3C15F26BBD8CA2093D10
:103E6000129F44BD129F443D90F5B03C15F2EBBC4F
:103E7000979BFF3C934858BD90F530BD4D7793BD5F
:103E80004EA69EBE071CDEBD2A61BEBD4EA69E3D4F
:103E9000E3D67D3C2A61BE3D071CDE3DE14FC6BE38
:103EA000E3D6FD3D2A613EBDE3D67DBD2A613EBD20
:103EB000E3D6FDBCE0C80E3EE3D67D3D2A613EBDA3
:103EC000983E4E3E4EA61E3EE3D6FDBC2A613EBD48
:103ED000E0C88E3E2A61BEBDE0C80E3E4EA61E3E24
:103EE000E0C80EBE071CDEBDBC832EBE2A61BEBD6F
:103EF0002A61BE3DE3D67D3C2A613E3D071C5EBE85
:103F0000E3D67D3D00000000071C5EBEE3D6FD3C0D
:103F1000E3D67DBCE3D6FD3C00000000E3D67DBEC9
:103F2000E3D6FDBDBC832E3E000000004EA69EBD24
:103F30004EA69E3D4EA69E3D071CDE3DE3D6FDBD32
:103F40004EA61E3EE3D6FDBC2A613E3DE3D6FDBC37
:103F5000E0C80E3E4EA61EBEE3D6FD3C983E4E3E49
:103F6000E3D67DBCE3D6FD3DE3D6FD3DE3D67D3C07
:103F7000071CDE3D2A613E3DE3D6FDBD000000008A
:103F80002A613E3E2A613EBDE3D67DBEE3D6FD3DBD
:103F9000071C5EBEE0C80EBE071CDEBDE3D67DBDBD
:103FA00084D10ABF2A61BEBDE3D6FD3CE3D67DBD08
:103FB000983E4EBEE3D6FDBD0595A6BE4EA61EBEDE
:103FC0002A61BEBDE3D67D3E4EA61E3E97B796BE85
:103FD000E3D6FDBC2A613E3D071C5E3E983E4E3E48
:103FE000071CDEBD75F9ED3EE0C80E3E97B796BEE4
:103FF0004EA61EBE4EA69EBDE3D67DBDE0C80EBF3A
:10400000983ECE3E2A613E3DE3D6FD3D2A61BE3D4F
:10401000BC832EBE983ECEBE4EA61E3E0595A6BEC5
:104020002A613E3DE3D6FDBCE3D6FD3C2A613EBE9F
:10403000E3D67DBC4EA69E3D071CDEBE2A61BEBDFA
:10404000071CDE3D4EA69E3E2A613EBEE3D6FD3CE9
:10405000E3D67D3C071C5E3EE0C80E3E75F96DBEA2
:10406000E3D6FDBC4EA69EBD29DA863E00000000C8
:1040700075F96D3EE0C80E3E2A613E3DBC832E3E82
:10408000BC83AE3EE3D67D3D4EA69EBE071CDE3D04
:104090002A61BEBD0595A6BE2A613E3D071CDEBD58
:1040A000BC83AE3E983E4EBEE0C80E3EE3D6FD3C1D
:1040B000E3D67DBDE3D6FD3DE3D67D3C0595A63E2A
:1040C000E3D6FD3D2A613E3D7372B6BE071CDE3D60
:1040D000983E4E3E2A61BE3EE0C80EBE983ECEBE21
:1040E000071CDEBD2A61BE3D071CDE3D4EA61E3EFE
:1040F0004EA69E3DE0C88E3E071CDE3D4EA69E3D70
:10410000983E4EBEE0C80E3EE0C88EBE00000000E5
:104110002A613E3D502DD6BEE3D6FD3DE3D6FDBC23
:104120002A613EBDE3D6FDBC071CDEBDE3D6FDBD66
:10413000E3D67D3E4EA61E3EBC832E3EE0C88E3E9C
:10414000E0C80E3EBC832E3EBC832E3E2A613EBD9F
:104150002A613E3DE3D6FDBC2A613EBD071CDE3D23
:10416000E3D6FDBDE14FC6BEE3D6FD3C2A613EBDB0
:10417000E0C80EBE071CDEBEE0C80E3EE3D6FD3C26
:104180004EA69E3E97B7963E071CDEBD75F96D3E66
:10419000071CDE3D75F96DBE2A613E3EBC832E3E96
:1041A0002A61BE3DE3D67DBDE3D6FD3CE3D6FD3CB2
:1041B000071CDE3DE3D67D3EE3D67D3CE3D6FD3CE9
:1041C000E3D67D3EE3D67D3EE3D67DBEE3D67DBC21
:1041D000BC832E3E071CDEBE071CDEBD29DA863EF0
:1041E000E3D6FDBC071C5EBE071CDE3D071C5E3E21
:1041F0002A613E3DE3D67DBE97B796BEBC832E3E78
:104200002CE875BF2A613E3DE3D6FDBC2A61BEBDE8
:104210002A613E3DE3D67DBC071CDEBDE3D6FD3EF4
:10422000983ECEBEE3D67DBC2A613E3E983E4EBE51
:10423000E0C88EBE00000000E14FC6BE071C5E3E17
:10424000071C5E3E071C5E3EE3D67D3E2A613EBEF5
:104250004EA69E3D4EA69EBEE3D6FD3C4EA69E3E7D
:104260002A61BEBD0000000075F96D3EE3D67DBD3C
:104270002A613E3D2A613EBE0595A6BE29DA86BE6C
:1042800097B716BF2A61BEBEE0C80E3EE3D67D3D9D
:10429000071C5E3EE3D6FDBEE0C88E3E75F96D3E5E
:1042A00075F9EDBEE3D67D3DE3D6FDBC4EA61EBE40
:1042B000E3D6FD3CE3D67DBC983E4EBEE0C88E3EC4
:1042C000BC832EBE75F96D3E2A61BE3D2A613EBD9E
:1042D000E3D67DBCE0C80EBEE3D67D3DE3D6FDBC93
:1042E0002A613E3D071C5EBEE3D67D3C983E4EBE35
:1042F0004EA61E3E75F96DBEE0C80EBE4EA61E3E11
:104300004EA61EBE983ECEBEE3D6FD3DBC832E3EDD
:104310004EA69E3EBE0AE6BE071CDE3D4EA61E3ED3
:10432000983E4E3E2A61BEBE071CDE3D2A61BEBEDF
:10433000E3D67DBE000000002A613E3D8658423F24
:10434000BC83AEBEE3D67D3CBC832EBEE3D6FDBCB3
:10435000E3D67D3D00000000BC832EBE983E4EBEDD
:10436000E3D6FDBD0595A6BE2A613EBE502DD6BE44
:10437000E3D6FD3DBE0AE6BE983E4E3E4EA69E3DAD
:10438000BC832EBEBC832E3E2A613E3DE3D67D3DDE
:104390002A613E3D4EA69EBDBC832E3EE3D67DBD2A
:1043A000071CDEBD2A61BEBD071CDEBDE3D6FDBD18
:1043B0002A613E3D983E4E3E97B716BF0595A63EF4
:1043C000E0C80EBEE0C80EBE071CDE3D2A613EBE40
:1043D0002A613E3E071CDE3D0000000097B796BEF6
:1043E0002A61BEBE2A61BEBD2A61BEBE071C5EBE7A
:1043F000983E4EBE4EA69EBD983ECE3E983E4EBEC8
:10440000BC83AEBEE3D67D3DE3D6FD3DE3D67D3D28
:10441000E3D67D3E071CDEBDBC832E3E2A613EBD39
:104420004EA61E3E2A613EBD983E4E3E071CDE3D16
:10443000E3D67DBC97B7963E2A61BEBE0595A63EE3
:104440002A613EBE4EA61EBEE3D6FDBD4EA61EBED2
:1044500029DA863EE3D67D3D071CDEBD071CDEBDA6
:10446000E3D67D3C97B796BEE3D6FD3CE0C88E3ED2
:104470002A613E3D983E4EBE2A61BE3D983E4EBEEC
:10448000502DD6BE071C5E3EE3D6FD3E3BC012BF9C
:104490000595A63EBC83AEBE97B716BF4EA69E3D01
:1044A000E3D6FD3DE3D6FDBCE14FC63E4EA61EBFA2
:1044B000E14FC6BEE0C80E3E4EA69EBEE14FC63ED0
:1044C00029DA86BE2A61BEBDE3D6FD3CE0C88EBEB9
:1044D000E3D6FD3D000000002A613E3D2A61BEBDDD
:1044E000BC832EBEF2AE1ABFE3D6FD3C983ECEBED4
:1044F000E3D6FDBDE3D6FDBD3BC012BFA99D22BFE3
:104500002A613E3E75F96DBEE3D67DBDE3D67DBE24
:10451000502DD63E071C5EBEE0C80EBEBC832EBE2C
:1045200075F96DBE2A61BE3D75F96DBE7372B6BE7A
:104530002A61BEBE4EA69E3E29DA06BF29DA063F94
:10454000E3D6FDBDE3D67DBE75F96D3EE0C80EBF76
:10455000E3D6FD3DBC832E3EE0C88E3EE3D6FD3C57
:10456000E3D67D3CE3D6FDBC2CE8F5BEE3D67DBFAB
:10457000502DD6BE4EA69EBD97B796BE2A61BEBD33
:10458000E0C80E3E4EA69EBEE3D67D3D2A613E3E6D
:104590007372B63EE3D67DBD4EA69EBDE3D67DBD0D
:1045A000E3D67DBD2A61BEBD2A613EBD4EA61E3E3C
:1045B0002A613EBE2A61BEBDE3D67DBD75F9ED3EE2
:1045C000071CDEBD2A61BEBE75F9EDBEE0C88EBE19
:1045D0002A61BEBDE3D6FD3D2A613E3EE3D6FDBD68
:1045E000E3D67DBC2A613EBDF2AE1ABF983E4EBFF7
:1045F000E3D67D3DE0C80EBEBC832EBEBC83AEBEFE
:104600004EA69E3D2A613EBE4EA69E3E2A613E3D7E
:104610004EA69E3D75F96DBEE3D67DBD2A613EBEB8
:104620004EA61E3EE3D6FDBD000000004EA69EBD78
:10463000BE0AE63E4EA61E3E84D10ABFE3D6FD3C2E
:104640002A613EBD4EA61EBEE3D67DBD2A61BEBD1B
:10465000E3D6FDBDE3D6FDBD29DA86BE4EA69E3D5E
:1046600000000000E0C80EBE4EA69EBD983E4EBEA5
:10467000E3D67D3C2A613E3DE0C88E3EE3D6FD3C5C
:104680002A613EBD071CDEBDBC832E3EE0C80EBEC7
:104690000595A63EE3D67DBD4EA61EBEE3D67DBDE6
:1046A000E3D6FD3D4EA61EBE0595A63E7372B6BE70
:1046B000BC83AE3EE0C80EBEF43552BFE0C80EBEAD
:1046C000E3D6FD3C983E4EBEE0C80EBE00000000A2
:1046D000E3D67DBD0595A6BE4EA69EBE4EA61E3E49
:1046E000E3D6FD3D29DA86BEBC832EBFE3D67DBD71
:1046F0002A61BE3E4EA61EBE75F96DBE97B7963EA8
:104700002A613E3D2A613E3EE0C80E3E7372B6BE4F
:104710002A61BEBD7372B6BEE14FC6BE4EA61EBFB5
:104720004EA61E3E071CDE3D0595A63E865842BF9E
:10473000E3D6FDBD4EA69EBEE3D67DBE187B32BF3E
:104740002A613EBEE3D67D3CE3D67D3D75F96DBE64
:10475000E3D67DBD29DA06BF2A61BEBDE14FC63E64
:104760002A61BEBEE3D6FD3C187B32BF2A61BEBEC5
:10477000E3D67D3EE3D6FDBCF2AE1ABF2A61BEBED3
:10478000E3D67D3C75F96D3E2A613EBDE3D67DBD25
:10479000E14FC6BE2A613E3E071CDE3D29DA06BF58
:1047A00075F9ED3E2A61BE3EE3D6FDBEE3D6FDBC03
:1047B000E3D67DBDE3D6FD3DE3D67D3C2A61BEBD9B
:1047C0002A613EBDE0C80EBEE3D6FD3D502DD6BEEB
:1047D000071CDE3DBC83AEBEE3D6FD3DE3D67DBD0A
:1047E000CDE202BF2A613E3D071CDEBE618C2ABFBE
:1047F000E3D6FDBC071C5E3E4EA61EBEE3D67DBEC4
:10480000E3D6FDBD071C5E3E2A613EBD071C5E3E31
:1048100000000000E3D67D3E29DA863E4EA69EBD0E
:10482000E3D67D3D4EA69E3D4EA69EBE2A61BE3D70
:10483000983ECEBEE3D67DBC4EA61E3E2A61BE3D4E
:10484000E0C88E3EE3D67D3CE3D67DBD0595A6BE91
:10485000E3D67D3CE3D6FDBD4EA61E3E071CDEBD65
:10486000071CDEBE4EA61E3EBC83AEBEE3D6FDBE1A
:10487000E3D67D3D2A61BE3EE3D67DBE2A613EBDC4
:10488000E14FC63EE3D6FDBDE3D6FDBCE3D67DBD1C
:10489000BC83AEBE502DD6BEBC832EBE2A613EBEAA
:1048A000983E4EBE2A61BE3D2A613EBD071C5EBEDB
:1048B000E3D67DBC2A613EBFE3D6FDBD983ECEBEA9
:1048C0002A613E3DE3D67D3C4EA61E3EE3D6FD3C2E
:1048D000983ECEBEE0C80E3E4EA61EBEE0C80E3EBE
:1048E000502DD63E97B796BEE14FC6BEE3D67D3D6E
:1048F000071CDE3D071CDEBDE3D6FD3C0595A63E4C
:10490000071C5E3EE3D6FDBD2A613E3D75F96DBED6
:10491000BC832EBE2A613EBE29DA86BE4EA61E3E4E
:10492000071CDEBD983ECE3EE3D6FDBCCDE202BF05
:104930002A61BE3D187B32BF84D10ABFE3D67D3CDD
:104940002A613EBEBC832E3E75F96D3E97B796BE7A
:1049500097B716BFBC83AE3E071C5EBE502DD63E39
:104960004EA69E3EE0C80E3EBC832E3E4EA61EBE08
:10497000983ECE3E4EA69EBDE14FC6BEE3D6FD3C60
:10498000071CDE3D4EA61E3EE3D6FDBC071CDEBD69
:10499000E0C88EBE4EA69EBD00000000E3D67DBEE0
:1049A0007372B6BEE0C88E3E2A613EBD865842BFD5
:1049B0002A613E3D75F96DBE983E4EBEE3D6FDBD03
:1049C000BC83AEBEE3D6FD3CE3D67DBC071C5EBE19
:1049D00097B716BFE3D6FD3D4EA61EBEE3D67DBCFF
:1049E0002A613EBDE0C88E3E071CDEBDE3D67DBE1B
:1049F0002A613EBEE3D6FDBDE3D6FDBD071CDEBD8C
:104A0000E3D67DBC75F96D3E983ECEBE4EA69E3D6A
:104A1000502DD6BE4EA69EBE2A613E3DE3D6FDBCBD
:104A200029DA063F97B796BE2A613E3DE0C80EBE22
:104A3000E0C80E3EE3D67DBC071CDE3D2A613EBDCC
:104A4000E3D67D3CE3D67D3CE3D67D3CE3D67DBC1E
:104A500029DA86BEE3D6FD3DE3D6FD3C983ECEBEC8
:104A60004EA69E3DE3D6FDBD4EA69E3DE3D6FDBDC2
:104A700097B796BEE3D6FD3D0595A63E071CDEBE64
:104A8000071CDE3D4EA69E3D4EA69EBD75F96D3EB1
:104A9000E14FC6BE00000000071CDE3D4EA69EBED4
:104AA000071C5E3EBC832E3E2A613E3DE3D6FDBD23
:104AB0002A61BE3D2A61BEBD2A61BEBD2A61BE3DDE
:104AC000E3D67D3E2A613EBDE3D67D3D2A613E3E72
:104AD000E3D6FDBCE0C88E3E4EA61EBE97B796BE7E
:104AE000BC832EBEE3D67DBC2A613EBD2A613EBE9C
:104AF0004EA61EBE2A613E3E983E4E3E2A613E3E76
:104B00001C875FBD7EA7A3BD6198BFBBE791CBBDEE
:104B1000BF8FCFBD9AB6073DB39CB7BD6198BF3B71
:104B2000B39C37BDD7757FBCCFAB9BBDF8AD17BD70
:104B300049B28FBC6198BF3B9AB687BDD775FF3B22
:104B4000D775FF3A6198BFBB6198BF3C1C87DF3CBB
:104B500061983FBDBF8F4F3D04A1AF3C6198BF3C02
:104B6000F8AD97BD7A7EEFBCD775FFBA49B28F3CDE
:104B7000F8AD17BD55A5273DC3B883BD49B28FBC5D
:104B80001C87DFBC287A77BDBF8FCFBCF8AD17BDBF
:104B9000109447BDD775FF3A6198BFBD0000000073
:104BA000D7757FBBD775FF3BD775FFBDBF8F4F3D17
:104BB00049B28F3C109447BDA6A99F3CCB8267BDEC
:104BC00049B28FBCD775FFBAD775FF3AA6A91F3D6A
:104BD000CB8267BD7A7E6F3DD775FFBA55A527BDDD
:104BE0001C87DFBDA6A91F3CCB82673D49B28F3C25
:104BF000A6A91F3DD775FFBAB39C373DA6A99F3C18
:104C00001C875FBC04A1AFBC6D8B573DD775FF3AC5
:104C10006198BF3B49B20F3D1C875FBC7A7EEF3C79
:104C2000BF8FCFBC55A5273DD775FFBAD775FFBB42
:104C30009AB607BD1C875F3CD7757FBD7A7E6FBD76
:104C4000287A77BDF8AD173D7A7E6FBD04A1AFBC61
:104C500049B20FBDBF8F4FBD000000006198BFBBC0
:104C60004589DBBD9AB607BD55A5A7BDCB8267BDFB
:104C700072B48BBDB39C37BD1C87DFBC7A7E6FBD21
:104C800049B20FBDD7757F3B1C87DF3C6198BF3BA6
:104C9000B39C37BD9AB6073D7A7EEFBCBF8F4FBD40
:104CA00004A1AF3CA6A99F3CA6A91F3C49B28F3CDA
:104CB00049B28FBCBF8F4FBDBF8FCF3C1C87DF3C3D
:104CC00061983FBD1C875F3D1C87DF3C7A7EEF3CCF
:104CD000D775FFBCA6A91FBD1C87DFBC61983F3DEF
:104CE00061983FBD1C87DFBCD7757F3C000000008A
:104CF00049B20F3D6198BFBC1C87DFBC6198BFBB48
:104D0000BF8FCFBCD775FF3B287A773DD7757FBB68
:104D1000CFAB9BBD1C87DF3C7A7E6FBD7A7EEFBC3C
:104D20007A7EEFBC1C875FBC1C87DFBCF8AD17BD6B
:104D3000D775FF3B55A5273D287A77BDA6A91F3D0E
:104D4000DB9EB3BDD7757FBC04A12FBDBF8FCFBC89
:104D5000D775FF3A72B48BBD55A5273D04A12F3DF1
:104D6000CFAB9BBD287A77BD1C87DF3C7A7E6FBDB9
:104D7000A6A91FBDBF8F4F3D04A12F3DD775FFBB17
:104D80007A7E6FBD7A7E6FBDA6A91F3C8A9ABBBD95
:104D900004A1AFBD04A1AF3CD775FFBC49B20FBDA4
:104DA00004A12FBDD7757F3CBF8F4FBD0000000011
:104DB000D775FF3BA6A99FBCD775FFBB61983FBCC9
:104DC0009AB607BD6198BFBC6D8B57BD1C875F3D10
:104DD0006D8B57BD49B20F3D7A7E6FBDA6A91FBC32
:104DE000BF8FCFBDA6A91FBCA6A91FBDDB9EB3BDAB
:104DF000109447BD1094473D61983FBD55A527BD10
:104E000055A527BDBF8F4FBDD775FF3AD7757FBB5F
:104E100049B20FBDB39C373DCB8267BDCB8267BD26
:104E20007A7EEFBCA6A91FBCF8AD17BDD7757FBCB5
:104E3000D775FF3A04A12FBDBF8F4F3D04A1AFBC72
:104E400020B093BD49B20FBD6198BFBBD775FFBA03
:104E5000D7757FBD6D8B57BDD7757FBBBF8FCF3CDF
:104E6000B39CB7BDD775FF3CD775FFBB8A9ABBBD56
:104E7000D775FF3C1C875FBD7A7EEFBC04A1AF3CB9
:104E80007A7EEF3CA6A91FBDCB8267BD55A5A7BD05
:104E9000D775FFBC1C87DFBC61983FBD04A1AFBCC8
:104EA000D7757F3B287A77BDBF8FCFBC49B28FBC07
:104EB000F8AD17BDA6A91F3DD7757F3BA6A91FBD9D
:104EC000CFAB9BBD1C875F3C1C875FBDA6A91FBCE9
:104ED00004A1AF3CD775FF3C04A12FBDBF8F4FBDD0
:104EE00049B28FBD04A1AF3C7A7EEFBDA6A91FBC1D
:104EF0001C875F3C1C875F3CBF8F4F3D72B48BBDEE
:104F0000D7757F3B9AB687BD6198BFBCBF8FCF3C3A
:104F10006198BF3B109447BDA6A99F3C6198BF3CD8
:104F2000B39C373D49B28F3CC3B883BD287A77BD67
:104F3000D7757FBC109447BDA6A99FBC61983FBCA4
:104F4000C3B883BD9AB6073D61983FBD04A1AFBC0D
:104F500049B20F3DD7757F3BD7757FBCC3B883BDC2
:104F600049B28FBCD775FFBB6198BF3B04A1AFBCF2
:104F7000A6A99FBC6D8B573D9AB687BDF8AD17BDEE
:104F80001C875FBCA6A99FBD61983FBCA6A91FBD99
:104F90006D8B57BD109447BD04A1AFBDD7757F3C45
:104FA00049B28F3CD775FF3C9AB687BDD7757FBB9A
:104FB000D7757FBD72B48BBD6198BF3CA6A91F3C5D
:104FC0007EA7A3BD9AB607BDD775FFBA55A5273DE5
:104FD00055A5273DA6A99FBD6198BFBB1C87DFBC17
:104FE000A6A91FBDD775FF3BB39C373D49B20FBD86
:104FF0001C875F3C6198BFBB72B48BBDD7757F3C8B
:1050000049B20FBD6D8B57BDD7757FBDD775FFBB3F
:105010009AB607BD61983F3D04A1AFBCCB8267BD86
:1050200004A12F3D49B28FBCBF8FCFBD7A7EEF3C2C
:10503000CFAB9BBDF8AD173D7A7EEFBCD775FF3B7C
:10504000C3B883BD109447BDD775FFBCA6A91F3D4B
:105050006D8B57BD7EA7A3BD6198BFBC000000004B
:1050600049B28F3C1C875FBCD7757FBBD7757F3B30
:10507000A6A91F3DD7757FBB55A527BDD7757FBB9B
:10508000D7757FBDD775FFBC1C875F3C6198BFBDDE
:10509000D7757FBD7A7EEF3C1C875FBD55A5273D48
:1050A000CB8267BD55A527BDD775FFBBD775FFBCA4
:1050B000CFAB9BBD1C875FBD9AB6073D61983FBDD6
:1050C0007EA7A3BD7A7EEF3C61983F3C1C875FBC06
:1050D00004A1AF3C49B20FBD49B20FBDD775FFBBAC
:1050E000D7757FBCD775FF3BF8AD17BDB39C37BDF7
:1050F00004A1AFBC61983F3D6198BF3CD775FF3AB2
:1051000049B20F3D49B28FBDD7757FBD04A1AF3CF9
:1051100049B28FBC04A1AFBCCB8267BDCFAB9BBDF6
:10512000F8AD173DD775FFBC1094C7BD55A527BD79
:10513000109447BD61983FBD49B28FBC6198BFBC18
:105140007EA7A3BDF8AD17BDD775FFBBD775FFBB55
:105150006D8B57BDA6A91F3DBF8FCFBC1C87DFBC81
:10516000F8AD97BDB39C37BD109447BDA6A91FBC31
:10517000D7757FBCD7757FBCD7757F3B49B28FBCD5
:10518000D7757FBD61983FBD6198BFBCA6A99FBC84
:10519000A6A91FBD55A5273DC3B883BDA6A99FBD20
:1051A000F8AD17BDD7757FBCA6A91F3CBF8F4FBDFB
:1051B00004A12FBDBF8FCFBC04A12F3D49B20F3D2D
:1051C0006198BFBBBF8F4FBD49B28FBCBF8F4FBD72
:1051D000BF8FCF3C72B48BBD61983FBDA6A99FBC69
:1051E00020B093BDA6A91FBCD7757F3B9AB687BDDB
:1051F0006198BFBBA6A99FBC287A77BD7EA7A3BD37
:10520000A6A91F3C49B28FBCA6A91FBDB39C37BD40
:10521000B39CB7BDD7757FBC7A7EEF3CD7757FBC9A
:1052200055A5273DA6A91FBC49B28F3C1094473D08
:1052300049B28FBC55A5273DBF8F4F3DD775FF3C69
:10524000D775FFBC6D8B57BDD7757F3BF8AD173D4C
:10525000D7757FBB1C875FBD49B28F3CD7757F3B3D
:1052600049B28FBDD775FF3A109447BDD775FF3B44
:1052700061983FBC1C875FBD20B093BDD775FF3AD6
:1052800061983FBC9AB607BD1C875F3C6198BFBD63
:105290006198BF3C49B20FBD1C87DFBD6198BFBCA0
:1052A00004A1AF3CD775FF3AD775FF3BD7757FBDDB
:1052B000D775FF3C04A12FBDA6A91FBCF8AD97BDB3
:1052C00055A527BD109447BDA6A91FBD1C875FBD6E
:1052D0006198BF3B04A1AFBC6198BF3CD7757F3BD1
:1052E00061983F3C6198BFBC3996C3BD61983F3C13
:1052F0001C875FBDBF8FCFBC9AB607BDD7757FBC7B
:10530000D775FF3C55A527BDA6A91FBD04A1AFBDFC
:10531000BF8F4FBD04A1AF3CA6A91F3CD7757F3CF2
:1053200061983F3DA6A99F3C7A7E6FBDB39C373DF7
:1053300061983FBCD7757FBC6198BF3CD7757FBB78
:10534000BF8FCFBC1C875FBCF8AD17BD109447BDA5
:10535000A6A99FBCA6A91F3CCB8267BDCB8267BD17
:10536000287A77BDD775FF3B61983FBDD7757F3BE6
:1053700049B28F3CD775FF3B49B28F3C1C87DF3C5D
:10538000000000006198BFBD49B28F3CBF8F4FBD88
:1053900004A1AFBD61983F3D49B20FBD1C875FBC02
:1053A000D775FFBB61983FBC2CA3ABBD61983FBCD8
:1053B00004A1AF3CD7757F3B6198BFBB49B28FBC9E
:1053C00061983FBDD775FF3B1C87DFBCD7757FBB9E
:1053D0006198BFBBD775FFBCD775FF3B04A12F3DBC
:1053E000A6A91FBDD775FF3A0000000020B093BDED
:1053F000F8AD17BD61983FBDD7757FBBB39C37BD76
:105400001C875FBCA6A99FBD7A7E6F3D1C875FBCD1
:105410006198BF3BBF8FCF3CA6A91F3CF8AD173D9D
:10542000A6A91F3C287A77BDD775FFBB49B20F3DAF
:10543000B39C373DD775FFBC04A1AFBC9AB687BDFE
:10544000F8AD17BDBF8FCFBCBF8FCFBC1094473D09
:105450007A7E6FBD1C875FBC04A1AFBDD7757FBBD3
:10546000A6A91FBD6198BF3BCB82673D1C87DF3C6F
:10547000D775FFBABF8FCFBC287A77BDCB8267BD07
:10548000F8AD17BD61983F3CD775FFBAA6A99FBD7F
:1054900055A527BD6198BFBC6198BF3B00000000C7
:1054A000A6A91F3C109447BD109447BDA6A91FBCD8
:1054B00049B20F3DA6A91FBC000000006198BF3B88
:1054C0007A7EEF3CD775FFBB9AB6073D109447BD77
:1054D000BF8FCFBCC3B883BDD7757FBD55A5273D52
:1054E000C3B883BDB39C37BDBF8F4FBDCB8267BDF3
:1054F00061983FBDD775FF3CA6A91FBD1C87DFBCC7
:1055000004A1AFBCF8AD17BD1C875F3D49B28F3C0D
:10551000D7757F3CBF8F4FBD55A5A7BD6D8B57BDC0
:10552000CB8267BDD775FFBA3996C3BD1C875FBDF7
:10553000000000006198BF3CF8AD17BD61983FBD09
:105540001C875FBD04A1AFBC287A77BD7A7EEFBC13
:1055500020B093BD6198BF3C00000000BF8F4F3D5D
:10556000C3B883BDD775FFBCBF8FCF3C04A1AF3C90
:105570009AB6073DD775FF3A000000006198BF3C1E
:105580009AB607BDD775FFBCD775FFBABF8F4FBDA1
:10559000D775FFBA49B20F3DD7757FBDD7757FBBB1
:1055A0006198BF3B6198BFBBD7757F3BD775FFBC88
:1055B000CB8267BDA6A91F3CBF8FCF3C7A7E6FBD53
:1055C000D775FF3AB39C373DD7757F3B55A527BDAF
:1055D000F8AD97BD49B28FBCD7757FBB61983FBD11
:1055E000D775FF3B6198BFBBF8AD97BDA6A99FBC1F
:1055F0001C875FBD6198BF3B1C87DF3C61983FBD46
:105600000000000055A527BD6198BFBB04A12FBDB8
:10561000D7757FBBA6A99FBC109447BDD775FFBBAC
:105620007A7E6FBD2CA3ABBDF8AD97BD72B48BBDB8
:105630001C875F3CBF8FCFBC6D8B573D6D8B57BDBB
:10564000D7757FBB6198BFBB1C875FBCB39C37BD60
:10565000A6A99FBD61983FBCBF8F4FBD1C87DFBC13
:1056600061983FBCBF8FCFBC1C87DF3C6D8B57BDA3
:1056700061983FBD49B28FBC287A77BDD775FF3A94
:105680009AB6073D3996C3BDD7757FBC49B28FBD69
:10569000D7757F3CD775FF3BDB9EB3BD61983FBCA0
:1056A0001C87DFBCBF8F4FBDD7757FBD04A12F3DC9
:1056B00004A1AFBC1C875F3CCB8267BD6198BFBBB8
:1056C00061983F3CD775FFBCBF8F4FBD7A7EEFBC62
:1056D0006198BFBD00000000517CF3BDD775FF3A53
:1056E000F8AD173DD7757FBCA6A91FBD1C875FBC51
:1056F000D7757FBD6198BF3C1C87DF3CA6A99FBCC6
:105700001094473DBF8F4FBD6198BFBCBF8F4FBD49
:10571000CB8267BDA6A99F3C6198BFBC6198BFBC06
:10572000BF8F4F3DA6A99FBC55A527BDD775FFBA12
:105730001C87DF3C6D8B57BD7A7E6FBDD775FF3AF6
:10574000287A77BD04A1AF3C49B28FBCD7757FBB27
:1057500072B48BBD20B093BD20B093BDCB8267BD2A
:10576000D7757FBB04A1AFBC49B28F3C6D8B573D51
:10577000A6A99FBD04A12F3D287A77BD1C87DF3CD9
:10578000384318BD701D83BD0069ADBD325807BEDA
:10579000B5CD0FBDBBB8203D3E2E29BD4B044BBC43
:1057A0003258073DF4928B3DCE7953BD3258073DB8
:1057B000325807BB3258073C58DA6C3D325807BCA8
:1057C0007DF3A4BD4B04CBBBD46464BD45193A3D05
:1057D0003E2EA9BC58DAEC3CD46464BD4B04CBBC6F
:1057E0003258873C3E2E293D4B04CBBB7DF3A4BDF4
:1057F00058DAECBC3258873C3258073D325887BCE7
:10580000CE7953BD3E2EA9BD51EF5BBDC88E42BDC2
:10581000100001BE00000000969FE8BDC2A331BD8C
:10582000BBB820BD51EF5BBD100001BE3E2E29BDAF
:105830003258073BD46464BD5EC5FD3C00000000E7
:105840005EC5FD3C3E2E293D384318BD51EF5BBD82
:105850004B04CBBB4B044B3C000000003258073BD1
:105860004B044BBDF4928BBD4B044BBC4519BABCE9
:105870003258873C770894BD5EC5FD3C325807BB63
:105880003258873B3258073C51EFDBBCC88EC2BD53
:105890000D3FCFBD4B04CBBC3E2EA9BDC2A331BD35
:1058A0003E2E29BC325807BBC2A3B1BD384398BDB8
:1058B00051EFDBBC51EF5B3D325887BC4B044BBD15
:1058C00051EF5BBD4B04CBBCB5CD0FBDBBB820BD0C
:1058D000C88E423D3258073D3E2E29BC3E2E29BD82
:1058E00058DA6CBC4B044B3D701D83BD4B044BBC64
:1058F0003E2E293D4B044BBC4B044BBCC88E42BDD5
:105900003E2EA9BD3E2EA93C4B04CB3C3258073B52
:105910003E2E29BD4B044B3DC88EC2BDB5CD0FBD3B
:105920005EC5FDBCB5CD0F3D325807BC4519BA3C2C
:10593000325807BC3843183D3258073B701D833D31
:10594000B5CD0FBD3258873C4B04CBBC58DAEC3C8C
:105950003258873BC88E42BD51EFDBBC45193A3DFA
:1059600058DA6CBC5EC5FDBC4B04CB3C58DAECBCD1
:10597000701D83BD3E2E293C3E2E29BD51EFDBBC60
:10598000325807BBB5CD8FBD4B04CB3C0069ADBDD4
:105990004B04CBBC5EC5FD3C3E2EA9BC384318BDB4
:1059A000C88E423D51EF5BBD4B04CBBC3E2EA9BC23
:1059B000384398BC3843983C5EC5FDBC00000000ED
:1059C000B5CD8FBD4B044BBC3843183D384398BC14
:1059D0004B044BBC58DA6CBD3258073C325887BB7D
:1059E00045193A3D4519BA3C3258073C0069ADBDEE
:1059F000B5CD0F3D0069ADBD325887BB5EC5FDBC5E
:105A000051EFDBBC384318BD384398BC3258873B54
:105A100051EFDBBC3E2E293C4B044BBD3843183DB7
:105A20003E2EA9BC00000000BBB8A0BD3E2EA93C84
:105A3000384398BD5EC5FDBC4B044B3CDB4F75BD88
:105A400058DAECBCBBB8A0BDD46464BD58DA6CBDF8
:105A500058DAECBC3258873B83DEB5BD58DAEC3CF3
:105A60000654BEBD4B044B3DBBB8203D3258873C6D
:105A7000325807BCDB4F753D58DA6C3C4B044BBDCC
:105A80003258073C4519BABC4B04CBBC384398BDCF
:105A9000C2A3B1BD3E2E293CD46464BD325887BB3D
:105AA0003258073C58DA6CBDB5CD0FBD3843183DB0
:105AB0003843983C51EFDBBC5EC5FD3C3E2EA93C13
:105AC0003258873B7DF3A4BD4B044B3C4B04CBBB0E
:105AD000D464643D51EF5B3DCE7953BD51EFDB3C67
